:10000000020064FFFFFFFFFFFFFFFF020071FFFF21
:10001000FFFFFFFFFFFFFFFFFFFFFFFFFFFFFFFFF0
:10002000FFFFFFFFFFFFFFFFFFFFFFFFFFFFFFFFE0
:10003000FFFFFFFFFFFFFFFFFFFFFFFFFFFFFFFFD0
:10004000FFFFFFFFFFFFFFFFFFFFFFFFFFFFFFFFC0
:10005000FFFFFFFFFFFFFFFFFFFFFFFFFFFFFFFFB0
:10006000FFFFFFFF78007400F6D8FD75812A0201BA
:1000700018C0D0C000C001C002C003C004C005C089
:1000800006C007F8C000E5F0F8C000C082C083C019
:1000900022C023C024C025C026C027C028C029856F
:1000A00090226322FF852290D029D028D027D02605
:1000B000D025D024D023D022D083D082D000E8F520
:1000C000F0D000E8D007D006D005D004D003D0028D
:1000D000D001D000D0D032E5257004A823E62285D7
:1000E0002382852483E49322A823E527F622E525AD
:1000F000700AA823E6F5F008E6C5F022852382857C
:100100002483E493F5F0740193C5F022A823E52736
:10011000F608E528F6222222752301852389752316
:10012000B885238C75230085238A7523FFE5233347
:1001300092AF7523FFE5233392A97523FFE523339F
:10014000928C02014222C2D530E704F404D2D5C514
:10015000F030E704F404B2D5C5F08430D502F404DD
:1001600022E6F5F018E6F463F0FF04700205F022D1
:10017000E7F5F019E7F463F0FF04700205F02219C7
:10018000E6F5F0E7A4FA0918E6F5F0E7A42AFA196B
:10019000E6F5F0E7A4C5F02AC5F022E6FF18E6FE72
:1001A000E7FD19E7FC7B007A007910C3EE33FEEF20
:1001B00033FFEA33FAEB33FBEAC39CF8EB9D4005CF
:1001C0000EFB850002D9E4EE8FF02212019BEA8B30
:1001D000F022C2D5E630E70A1201617807FEAFF0DF
:1001E000D2D5E730E70A1201707905FCADF0B2D53F
:1001F00012019B30D509F463F0FF04700205F02270
:10020000E6F5F0E7B5F00C0809E6F5F0E7B5F00320
:1002100074FF22E422E6F5F0E7B5F01E0809E6F5E2
:10022000F0E7B5F0150809E6F5F0E7B5F00C0809B8
:10023000E6F5F0E7B5F00374FF22E422E7C3960881
:1002400009E7961322E7C3960809E7960809E79697
:100250000809E7961322E7C3960809E79622E7C341
:10026000960809E7960809E7960809E79622C3C5A4
:10027000F013C5F013D8F722C333C5F033C5F0D857
:02028000F72263
:00000001FF
