:020000040800F2
:10000000B02F0120450100084D170008CD0E000853
:1000100069140008F1040008916300080000000062
:10002000000000000000000000000000295000084F
:10003000BF0C0008000000009D170008B95400081C
:100040005F0100085F0100085F0100085F01000810
:100050005F0100085F0100085F0100085F01000800
:100060005F0100085F0100085F0100085F010008F0
:100070005F0100085F0100085F0100085F010008E0
:100080005F0100085F0100085F0100085F010008D0
:100090005F0100085F0100085F0100085F010008C0
:1000A0005F0100085F0100085F0100085F010008B0
:1000B0005F0100085F0100085F0100085F010008A0
:1000C0005F0100085F0100085F0100085F01000890
:1000D0005F0100087D6200085F0100085F01000801
:1000E0005F0100085F0100085F0100085F01000870
:1000F0005F0100085F0100085F0100085F01000860
:100100005F0100085F0100085F0100085F0100084F
:100110005F0100085F010008795600085F010008D0
:100120005F0100085F0100085F0100085F0100082F
:10013000DFF80CD000F0A6F800480047358600082C
:10014000B02F01200648804706480047FEE7FEE73B
:10015000FEE7FEE7FEE7FEE7FEE7FEE7FEE7FEE777
:1001600029560008310100082DE9F0410024061B42
:10017000254671F1000605DA01240027D0EB0700BF
:1001800067EB0101161E73F1000605DA0027D2EBBA
:100190000702012567EB030300F042F886460E468E
:1001A00017469C46AC4204D00025D0EB050E65EB0B
:1001B000010624B10020D2EB000760EB030C70466F
:1001C00031463A466346BDE8F08100F0004230F027
:1001D00000400AD0C10D01F56071C0F3160042EA7B
:1001E0000151C20840071143704700200146704783
:1001F00030B5041E71F1000404DB4FF000444042AE
:1002000064EB0101141E73F1000405DB1C464FF082
:100210000043524263EB0403994208BF904230BD51
:100220002DE9F05F0546002092469B46884606462B
:10023000814640241BE0284641464746224600F0BE
:1002400042F853465A46C01A914110D311461846F7
:10025000224600F029F82D1A67EB01084F46224686
:100260000120002100F020F817EB00094E41201E6C
:10027000A4F10104DFDC484631462A464346BDE886
:10028000F09F0000064C074D06E0E06840F00103D7
:1002900094E8070098471034AC42F6D3FFF74CFFC0
:1002A0000CB400082CB40008202A04DB203A00FA21
:1002B00002F1002070479140C2F1200320FA03F3BD
:1002C000194390407047202A04DB203A21FA02F0BB
:1002D0000021704721FA02F3D040C2F12002914080
:1002E00008431946704730B58C1810F8012B12F0EE
:1002F0000F0301D110F8013B120906D110F8012BB0
:1003000003E010F8015B01F8015B5B1EF9D101E02D
:1003100001F8013B521EFBD1A142E6D3002030BDC3
:1003200038B50446092C71D2DFE804F0053B5A6564
:10033000717C91A6BD006449088801F0CFF863493B
:10034000086061490988891C88B201F019F960497F
:1003500008605D490988891D88B201F0D1F85D49BE
:100360000860594909880A3188B201F0C9F85A4928
:100370000860554909880E3188B201F0AFF8574935
:1003800008600846008800B200905348036851484E
:1003900002684F4801684D48008800B209F060FAD1
:1003A00090E04949088801F099F84D4908604649AC
:1003B0000988491C88B201F0E3F8454908604249C0
:1003C0000988891C88B201F09BF8464908600B46F1
:1003D0001A783F4B1978424B187809F033FA71E0DC
:1003E0003949088801F08CF83849086008460068E7
:1003F00009F022FA66E03449088801F081F83349AF
:1004000008600846006809F011FA5BE055E02E49E3
:10041000088801F075F82D4908600846006809F061
:10042000FFF94FE02849088801F06AF82749086079
:1004300025490988091D88B201F062F82A49086037
:10044000084601682148006809F086FA3AE01E492A
:10045000088801F055F81D4908601B490988091DE5
:1004600088B201F04DF82049086008460168174835
:10047000006809F01BFA25E01349088801F040F8EC
:100480001249086010490988091D88B201F038F83E
:1004900015490860084601680C48006809F022FA0E
:1004A000124908600EE00849088801F07DF80C49FF
:1004B0000860087809F09EF904E0E1B2522000F0EB
:1004C000FFFB00BF00BF38BD34000020B400002097
:1004D00090000020BC000020C0000020C4000020CC
:1004E0008C00002094000020B80000205C00002058
:1004F00000BFFEE72DE9F04704460D4600F027FC5B
:100500001F48007808B300261CE02778641C94F884
:100510000080641C94F80090641C94F800A0641C93
:100520004FEA082000EB094000EB0A600744394617
:100530001448008800F024FC12480088001D11496E
:100540000880361DAE42E0D316E0002612E0277880
:10055000641C94F80080641C07EB082087B23946BD
:100560000848008800F0F8FB06480088801C054910
:100570000880B61CAE42EAD300F0D7FBBDE8F08796
:10058000110000201200002010B50020044908804E
:1005900000F0DDFB00F0AAFB00F0C7FB10BD00007F
:1005A000120000202DE9F04139490C780120002388
:1005B0009FED380AB0EE402A65E03549095C4906EE
:1005C0000A0E411C88B2DFED331AF0EE610ADFED4E
:1005D000311AB0EE611A014626E02D4F7D5CBC4613
:1005E0004F1C1CF807707F1EFEB205EBC50707EB1A
:1005F0004517DFF8A4C00CEB870C4FF0050808EB9B
:1006000046077F1C0CEB8707D7ED002AF0EE621A35
:1006100071EE212AB0EE621AF7EE002A70EEA22ADD
:10062000F0EE620A8D1CA9B285188D42D5DC81EEF0
:10063000200A01461AE0164F7D5CBC464F1C1CF890
:1006400007707F1EFEB205EBC50707EB4517DFF805
:1006500048C00CEB870C4FF0050808EB46077F1CE1
:100660000CEB870787ED000A8D1CA9B285188D4217
:10067000E1DC811888B2591C8BB20021074D29702A
:10068000B0EE402A00BFA34297DBBDE8F081000036
:10069000AC26012000000000A4060120D0010020AB
:1006A00070B50024D1E06C48006805280ADD6A486E
:1006B00000686A49098890FBF1F201FB1200A04230
:1006C00000D1C0E001206649087004EBC40000EBD3
:1006D0004410644901EB800090ED000ABDEEC00AB1
:1006E00010EE105A292D6ED2DFE805F0AA15191D5B
:1006F0002125413D2D31392935494D51555D656ED5
:1007000072596169767A7EAA92AA8296868A9A9EA0
:100710008EA2A6AA4500204604F018F991E02046D2
:1007200002F03EF88DE0204601F0FCFC89E0204616
:1007300002F068F885E0204601F0A6FF81E020463F
:1007400001F0A2FF7DE0204602F0C8FF79E02046DC
:1007500003F09EFE75E0204603F09AFE71E020460D
:1007600004F008F86DE0204602F058FC69E02046ED
:1007700002F08AF965E0204602F04CFF61E0204675
:1007800002F0B6F85DE0204602F016F959E0204686
:1007900003F080FF55E0204602F0E8FB51E02046E0
:1007A00002F066FD4DE0204601F0E2F849E0204607
:1007B00002F0C8FD45E0204601F044F941E0204642
:1007C00002F03AFE3DE03BE0204601F0B5F938E0AA
:1007D000204601F01FFA34E0204602F09BFE30E094
:1007E000204604F05FF92CE0204604F0EDF828E004
:1007F000204601F077FB24E0204602F0EDFF20E0E8
:10080000204603F0D3F91CE0204602F0C5F918E0B9
:10081000204603F0AFFE14E0204601F0F3FB10E0A9
:10082000204602F0CDFC0CE0204603F0A9FB08E0D6
:10083000204601F0EFFC04E0204601F06BFA00E0F6
:1008400000BF00BF00BF601C84B20448008884421F
:10085000FFF629AF70BD0000C4010020C8010020D0
:10086000D1010020A406012030B500245BE004EB98
:10087000C40000EB44102E4901EB800090ED000A0B
:10088000BDEEC00A10EE105A28461E2D2BD00EDCED
:10089000042824D006DC012811D0022813D0032814
:1008A0003DD118E0082812D01C2838D12BE01F3881
:1008B000062834D2DFE800F02B1B1F2F33232046FD
:1008C00005F002FC2CE0204605F032F828E0204636
:1008D00005F0D8F924E0204604F0DEFF20E02046B1
:1008E00005F03EF81CE0204604F0D0FE18E020465B
:1008F00005F0F2F914E0204605F050FA10E0204629
:1009000005F056F80CE0204605F07EFB08E0204696
:1009100004F010FF04E0204605F038F900E000BFC5
:1009200000BF601C84B20348008884429FDB30BD56
:10093000A4060120C801002010B5044600200D497E
:100940000860AA2008F085FE022008F082FE002040
:1009500008F07FFEF32008F07CFE0748007808F0DE
:1009600078FE00F0F3F9642004F079FC00F064FDF7
:1009700010BD0000080000201000002010B5044643
:1009800014B1012C25D116E01549088800F00CFEA1
:100990001449086012490988491C88B200F004FE15
:1009A000114908600A4611780E4A107809F088F853
:1009B0000E49086012E00A49088800F0B5FD0C49AC
:1009C00008600846007840B209F0B6F807490860A8
:1009D00004E0E1B2522000F073F900BF00BF10BD87
:1009E000340000208C000020900000205C000020DB
:1009F000B400002010B504465CB90949088800F02D
:100A0000D3FD08490860087809F0FCF80649086039
:100A100004E0E1B2522000F053F900BF00BF10BD66
:100A2000340000208C0000205C00002010B504463B
:100A300024B1012C0CD0022C2BD11EE018490888BF
:100A400000F0B2FD17490860087809F07AF925E04E
:100A50001349088800F0A8FD124908601049098868
:100A6000491C88B200F0A0FD0F4908600A461178C1
:100A70000C4A107809F08BF910E00949088800F059
:100A800053FD08490860087809F027F9074908600C
:100A900004E0E1B2522000F013F900BF00BF10BD26
:100AA000340000208C000020900000205C0000201A
:100AB00030B504460D462946204608F013FF30BDE8
:100AC00010B5044631480068401C304908600846AB
:100AD0000068012804D1AA2C01D00020086010BDB4
:100AE0002A480068022802D129480480F7E72748ED
:100AF0000068032806D12648008800EB042024491A
:100B00000880ECE721480068042801D121480470DE
:100B10002148007858B11F480078FF2803D11C48AD
:100B20000088012803D0002018490860D7E7194839
:100B30000078F22812D004DCF02807D0F12819D16F
:100B400008E0F3280ED0FF2814D10FE0204604F06F
:100B50003DFB18E0204604F05FFC14E0204600F066
:100B600085FE10E02046FFF7E7FE0CE0204607F088
:100B700077F808E007480178502000F0A1F800203D
:100B80000249086000BF00BF00BFA8E708000020BE
:100B90000E0000200C0000200000002070B504466C
:100BA000250AE6B2152D60D2DFE805F00B0F13170A
:100BB0001B1F23272B2F33373B3F43474B4F5357A5
:100BC0005B00304604F07AFC57E0304603F0D8FF73
:100BD00053E0304600F07CF94FE0304604F05EF917
:100BE0004BE0304604F09AF847E0304604F04CFB06
:100BF00043E0304600F016FD3FE0304604F0A6FA30
:100C00003BE0304604F0E0F937E0304607F09EF86C
:100C100033E0304607F068F82FE03046FFF706FF74
:100C20002BE03046FFF7E6FE27E0304600F0E2FB1F
:100C300023E030460AF0A0FA1FE03046FFF79EFEA0
:100C40001BE03046FFF76CFB17E0304600F0ACF8D5
:100C500013E0304600F0EAF80FE0304605F026FBDE
:100C60000BE0304604F03EFB07E0E1B2522000F01A
:100C700027F800200249087000BF00BF70BD0000C7
:100C80000000002010B50446AA2008F0E2FC052070
:100C900008F0DFFC002008F0DCFCFD2008F0D9FCA7
:100CA000E0B208F0D6FCC4F3072008F0D2FCC4F38D
:100CB000074008F0CEFC200E08F0CBFC10BD7047BA
:100CC00070B504460D46AA2008F0C3FC032008F0C6
:100CD000C0FC002008F0BDFCFE2008F0BAFCE0B229
:100CE00008F0B7FCE8B208F0B4FC70BD70B50024A1
:100CF0000CE008490A1402FB041007F085FA0546C7
:100D000015B1562008F0A5FC601CC4B2402CF0DBE5
:100D100070BD000000C0000880207047012001491C
:100D20000870704711000020704710B507F056FAA0
:100D300010BD000001460148085C704700C0000873
:100D4000014601480858704700C00008704710B5B8
:100D500007F0D0FA10BD000070B504460E460749F2
:100D60006018314607F0DAF905462DB1342008F055
:100D700070FC284608F06DFC70BD000000C0000843
:100D800070B504460E4607496018314607F0D4FA9C
:100D900005462DB1342008F05CFC284608F059FCCB
:100DA00070BD000000C0000810B50446012C2AD117
:100DB0001849088800F0F8FB1749086015490988A8
:100DC000491C88B200F0DCFB14490860114909880D
:100DD000491D88B200F094FB114908600D4909884B
:100DE000093188B200F08CFB0E4908600A49087886
:100DF0000C490B680A490A680849096808F0F8FFB5
:100E00000949086004E0E1B25220FFF759FF00BF32
:100E100000BF10BD340000208C0000209000002096
:100E2000B4000020B80000205C00002038B5044663
:100E3000012C37D11F49088800F076FB1E49086055
:100E40001C490988491C88B200F09AFB1B490860BC
:100E500018490988491D88B200F072FB18490860DA
:100E600014490988C91D88B200F038FB154908608B
:100E700010490988093188B200F030FB1249086036
:100E80000846008800B200900D48008882B20D48E4
:100E9000008803B2094801680748007840B209F0A9
:100EA00077F804E0E1B25220FFF70AFF00BF00BF6D
:100EB00038BD000034000020B40000208C00002069
:100EC00090000020B8000020BC00002000BFFEE71A
:100ED0002DE9F04104460025002624B1012C17D04D
:100EE000022C52D122E02D49088800F05DFB2C49EC
:100EF00008602A490988491C88B200F055FB294935
:100F000008600A461178264A107808F029F841E06E
:100F10002249088800F008FB234908600846007849
:100F200040B22249087007F0C1FF33E01B4908882E
:100F300000F026FB1A49086000250846008886B2A2
:100F400000271FE005F1B001C8B208F012F81749F8
:100F5000087808F00EF8102008F00BF8681CC5B2ED
:100F60004FF0000809E01249885D08F012F8701C83
:100F700086B208F1010000F0FF08B8F1800FF2DB43
:100F8000781CC7B2082FDDDB04E0E1B25220FFF786
:100F900097FE00BF00BFBDE8F081000034000020D4
:100FA0008C00002090000020B4000020DE00002013
:100FB000E802002070B504460D46054951F824307A
:100FC000044951F824000322002107F015FA70BDEE
:100FD000E8020120E803012070B50446102C05DB6F
:100FE000112C03DCA4F10800C4B206E0202C04DBC1
:100FF000252C02DCA4F11600C4B2052322460021F0
:10100000074806F0ADFF012004F029F904484C30F0
:1010100005682946E81705EB9070801070BD000048
:101020000024014070B504460D4655B90A4951F8EF
:1010300024300A4951F824000322482107F0DCF942
:1010400009E0054951F82430044951F824000322ED
:10105000102107F0D1F970BDE8020120E80301205A
:1010600010B50446044A52F82410044A52F82400E9
:1010700007F020FA10BD0000E8020120E80301207B
:1010800010B501207B490860022048600420886078
:101090000820C86010200861202048614020886135
:1010A0008020C861400008624000486240008862B9
:1010B0004000C86240000863400048634000886305
:1010C0004000C8630120086402204864042088644A
:1010D0000820C864102008652020486540208865E5
:1010E0008020C86540000866400048664000886669
:1010F0004000C866400008674000486740008867B5
:101100004000C8670120C1F880000220C1F88400B7
:101110000420C1F888000820C1F88C001020C1F814
:1011200090002020C1F894004020C1F89800802051
:10113000C1F89C004000C1F8A0004000C1F8A40024
:101140004000C1F8A8004000C1F8AC004000C1F860
:10115000B0004000C1F8B4004000C1F8B800400041
:10116000C1F8BC000120C1F8C0000220C1F8C400D1
:101170000420C1F8C8000820C1F8CC001020C1F834
:10118000D0002020C1F8D4004020C1F8D800802031
:10119000C1F8DC004000C1F8E0004000C1F8E40004
:1011A0004000C1F8E8004000C1F8EC004000C1F880
:1011B000F0004000C1F8F4004000C1F8F800400021
:1011C000C1F8FC0000202EE0102809DA2A492B4A39
:1011D00042F8201040F20261294A22F8101020E063
:1011E000202809DA2749254A42F8201040F20361F5
:1011F000234A22F8101014E0302809DA22491F4A45
:1012000042F8201040F204611D4A22F8101008E054
:101210001E491A4A42F8201040F20561184A22F885
:101220001010411CC8B24028CEDB00240DE0144948
:1012300031F8140007F052FB0E4850F824000F4913
:1012400051F824100861601CC4B2402CEFDB4FF44D
:10125000C06007F043FB01210D4807F033F900F0AF
:101260007FF800F04BF800F088F84FF0804009F06C
:101270002AFF10BDE802012000080140E803012018
:10128000E8040120000C014000100140001401405E
:1012900000043000014600207047000039B9084AB8
:1012A00052F82020074B53F820305A6106E0044AD8
:1012B00052F82020034B53F820301A617047000089
:1012C000E8020120E8030120034951F82010034AF5
:1012D00052F8202051617047E8020120E803012004
:1012E000034951F82010034A52F820201161704739
:1012F000E8020120E80301207047000010B51748FC
:1013000006F0B4FD002006F01DFE00220221134865
:1013100006F07CFE00224FF48071104806F076FE45
:1013200000210E4806F097FD012211460B4806F0F9
:101330006FFD4FF4C0220121084806F0EBFD0122A9
:101340001146064806F0C7FD044806F0BBFD012023
:1013500003F085FF014806F046FD10BD0024014062
:1013600010B540F2096007F0B9FA4FF4E06007F0F9
:10137000B5FA032007F0D0F910BD00B587B04FF0E3
:10138000804009F0D9FD0520ADF800000020ADF83F
:101390000200ADF80400C72002900020ADF806005E
:1013A0008DF80C0069464FF0804009F091FE04A8CA
:1013B00009F0B9FD0220ADF814000120ADF81000CD
:1013C00004AA0121800709F04BFC6422012188074F
:1013D00009F069FD70220121880709F037FD00221C
:1013E0000121880709F072FD4FF0804009F032FCBE
:1013F00007B000BD10B5044614B1012C0FD109E0AF
:101400000A49088800F0D0F809490860087808F00F
:101410003FFE09E008F064FE0649086004E0E1B21E
:101420005220FFF74DFC00BF00BF10BD340000206C
:101430008C0000205C00002010B5FFF775FCFFF762
:101440001FFE09F039F94FF4E13008F0DDF805F03E
:1014500007F80120034908700A2004F077FE07F01E
:1014600055FB10BD0000002000BFFEE7002003E098
:101470000021044A1154401C034909688842F7D3EB
:1014800070470000E8020020E000002070B505462B
:10149000681CFFF74FFC04464FF6FF7000EA042477
:1014A0002846FFF747FC204484B2204670BD70B543
:1014B0000546E81CFFF73EFC04462402A81CFFF783
:1014C00039FC04442402681CFFF734FC0444240261
:1014D0002846FFF72FFC0444204670BD0146064B0A
:1014E0004A1C985C00021A46525C104400F4004208
:1014F0000AB1024A10437047E80200200000FFFFD3
:101500000146084BCA1C985C00028A1C9A5C104475
:1015100000024A1C9A5C104400021A46525C1044B5
:1015200070470000E80200200146044A505C00F0C9
:1015300080020AB160F0FF0070470000E80200205E
:101540000146064B4A1C985C4FF6FF7202EA0020E7
:101550001A46525C024490B270470000E802002034
:101560000146064B8A1C985C00024A1C9A5C104497
:1015700000021A46525C104470470000E802002046
:101580000146084BCA1C985C00028A1C9A5C1044F5
:1015900000024A1C9A5C104400021A46525C104435
:1015A00070470000E802002001460148405C704797
:1015B000E802002030B50A46034C2254120A2546A0
:1015C000431CEA5430BD0000E802002030B502465A
:1015D0000846064CA054000A2546531CE854000A4D
:1015E000931CE854000AD31CE05430BDE8020020EC
:1015F00010B5034B195409121C46421CA15410BDCE
:10160000E802002010B5064B1954090A1C46421C7A
:10161000A154090A821CA154090AC21C995410BD84
:10162000E80200201CB5044614B1012C76D133E049
:101630003E490888FFF764FF3D4908603B49098837
:10164000091D88B2FFF7B0FF3A4908603749098899
:10165000491D88B2FFF7A8FF374908603349098858
:10166000891D88B2FFF7A0FF344908602F49098817
:10167000C91D88B2FFF798FF314908600846007815
:1016800000902E4803782C4802782A480178284890
:10169000006809F02FF846E024490888FFF784FF26
:1016A0002449086021490988491C88B2FFF77CFF5A
:1016B000214908601D490988891C88B2FFF774FF19
:1016C0001E49086019490988C91C88B2FFF76CFFD8
:1016D0001B49086015490988091D88B2FFF764FF96
:1016E0001849086011490988491D88B2FFF75CFF55
:1016F000154908600846007812490978CDE90010BC
:101700000F4803780D4802780B48007841B2094829
:10171000007840B209F0B2F805E0FFE7E1B25220EC
:10172000FFF7CEFA00BF00BF1CBD00003400002050
:10173000B40000208C0000209000002094000020C5
:10174000980000209C000020A000002070470000AE
:1017500010B501210E480078FFF764FC01210D4807
:101760000078FFF75FFC01210B480078FFF75AFC77
:10177000012107480078FFF791FD01210548007815
:10178000FFF78CFD002104480078FFF787FD10BDAE
:101790002C0100202D0100202E01002070470000A8
:1017A000002004490860044908700449087004498D
:1017B00008707047080000200C0000201000002076
:1017C0001100002070B50446E5B2C4F30726012ECF
:1017D00004D0022E08D0042E12D10BE02846FFF7C9
:1017E00059FD0B49086010E02846FFF739FC08490D
:1017F00008600AE02846FFF7EFFB0549086004E0AF
:1018000001215320FFF75CFA00BF00BF70BD00004C
:101810005C0000202DE9F04105460C46EEB2C5F310
:10182000072737B1012F09D0032F0CD0042F14D173
:101830000EE0E1B23046FFF7F5FB13E0E1B23046CF
:10184000FFF72CFD0EE0E1B23046FFF755FD09E051
:10185000E1B23046FFF7AEFB04E001215320FFF771
:101860002FFA00BF00BFBDE8F08100002DE9F04174
:10187000044619480068042801D1BDE8F0811648E3
:101880000068052802D115480480F6E71248006870
:1018900006281FD11148007804EB002086B20020F2
:1018A0000D490860AA2007F0D4FE012007F0D1FE00
:1018B000012007F0CEFEF22007F0CBFE002506E067
:1018C0007019FFF737FA074607F0C3FE6D1CFF2DAE
:1018D000F6D900BF00BFD0E70800002016000020A6
:1018E0000548008800F4004028B103480068034917
:1018F00008430149086070475C0000200000FFFFBA
:10190000704700000548007800F0800028B10348C7
:10191000006860F0FF000149086070475C0000202B
:1019200070B500200E4908700E48006808B9FEF72F
:101930009BFF00253224B7EE000A0B4880ED000A19
:1019400000BF00BF012009490870FEF7A9FEFEF79D
:1019500029FE6D1C0548007808B9A542F2DB70BD70
:10196000D1010020C4010020CC010020D0010020C2
:1019700000EBC00202EB40122E4B03EB820292ED11
:10198000062AF0EE420A00EBC00202EB401203EB23
:10199000820292ED082AB0EE421A00EBC00202EB7E
:1019A000401203EB820292ED0A2AB0EE420A00EBEB
:1019B000C00202EB401203EB820292ED092AF0EE24
:1019C000421A9FED1D2AF4EEC20AF1EE10FA08DD6C
:1019D0009FED192AB4EEC21AF1EE10FA01DD0122D0
:1019E00000E00022114651B19FED142A32EE402A48
:1019F000F0EE421A9FED112AB0EE420A07E0B1EE76
:101A0000402AF0EE421A9FED0E2AB0EE420A00EB99
:101A1000C00202EB4012074B03EB820282ED0A0A7E
:101A200000EBC00202EB401203EB8202C2ED091A86
:101A300070470000A406012000401C4500409C4562
:101A40000000000000EBC00202EB4012364B03EB3B
:101A50008202D2ED062AF0EE620A00EBC00202EB2F
:101A6000401203EB8202D2ED082AB0EE621A00EBBC
:101A7000C00202EB401203EB8202D2ED0A2AF0EE22
:101A8000621A00EBC00202EB401203EB8202D2EDBD
:101A90000C2AB0EE620A00EBC00202EB401203EB2C
:101AA0008202D2ED0B2AB0EE622ADFED202AF4EE9C
:101AB000E20AF1EE10FA0FDDDFED1C2AB4EEE21AB5
:101AC000F1EE10FA08DDDFED192AF4EEE21AF1EE7C
:101AD00010FA01DD012200E00022114651B1DFEDD4
:101AE000142A72EEC02AB0EE622ADFED112AB0EE9F
:101AF000620A07E0F1EE402AB0EE622ADFED0D2A1D
:101B0000B0EE620A00EBC00202EB4012064B03EBA0
:101B1000820282ED0C0A00EBC00202EB401203EBE2
:101B2000820282ED0B2A7047A406012000401C456A
:101B300000409C450000000000EBC00202EB401298
:101B4000304B03EB820292ED062AB0EE421A00EB14
:101B5000C00202EB401203EB820292ED082AF0EE83
:101B6000421A00EBC00202EB401203EB820292ED3C
:101B70000A2AB0EE420A00EBC00202EB401203EB6D
:101B8000820292ED092AF0EE420A9FED1F2AB4EE7E
:101B9000C21AF1EE10FA08DD9FED1B2AF4EEC21A0C
:101BA000F1EE10FA01DD012200E00022114609B930
:101BB000012200E00022114651B19FED142A32EEBD
:101BC000402AF0EE420A9FED112AB0EE420A07E0E9
:101BD000B1EE402AF0EE420A9FED0D2AB0EE420A25
:101BE00000EBC00202EB4012064B03EB820282EDD7
:101BF0000A0A00EBC00202EB401203EB8202C2EDC4
:101C0000090A7047A406012000401C4500409C457D
:101C10000000000000EBC00202EB4012394B03EB66
:101C20008202D2ED062AF0EE621A00EBC00202EB4D
:101C3000401203EB8202D2ED082AF0EE620A00EBBA
:101C4000C00202EB401203EB8202D2ED0A2AB0EE90
:101C5000621A00EBC00202EB401203EB8202D2EDEB
:101C60000C2AB0EE620A00EBC00202EB401203EB5A
:101C70008202D2ED0B2AB0EE622ADFED232AF4EEC7
:101C8000E21AF1EE10FA0FDDDFED1F2AF4EEE20AA0
:101C9000F1EE10FA08DDDFED1C2AB4EEE21AF1EEE7
:101CA00010FA01DD012200E00022114609B90122EB
:101CB00000E00022114651B1DFED142A72EEC02A75
:101CC000B0EE622ADFED112AB0EE620A07E0F1EE13
:101CD000402AB0EE622ADFED0E2AB0EE620A00EB77
:101CE000C00202EB4012074B03EB820282ED0C0AAA
:101CF00000EBC00202EB401203EB820282ED0B2AE2
:101D000070470000A406012000401C4500409C458F
:101D10000000000010B500EBC00303EB40136D4C56
:101D200004EB830393ED065AF0EE450A00BF00EB87
:101D3000C00303EB401304EB830393ED085AB0EEAA
:101D4000451A00BF00EBC00303EB401304EB830311
:101D500093ED0A5AF0EE451A00BF00EBC00303EB07
:101D6000401304EB830393ED0C5AB0EE452A00BFF9
:101D700000EBC00303EB401304EB830393ED0E5A17
:101D8000F0EE452A00BF00EBC00303EB401304EB69
:101D9000830393ED105AF0EE453A00BF00EBC00309
:101DA00003EB401304EB830393ED125AB0EE454A64
:101DB00000BF00EBC00303EB401304EB830393ED80
:101DC000145AF0EE454A00BF00EBC00303EB40138A
:101DD00004EB830393ED165AB0EE450A00EBC00303
:101DE00003EB401304EB830393ED155AB0EE453A31
:101DF00000229FED395AF4EEC50AF1EE10FA01DD2A
:101E000042F001029FED345AB4EEC51AF1EE10FA19
:101E100001DD42F002029FED305AF4EEC51AF1EEF8
:101E200010FA01DD42F004029FED2B5AB4EEC52AF0
:101E3000F1EE10FA01DD42F0080200219FED265A72
:101E4000F4EEC52AF1EE10FA01DD41F001019FED3B
:101E5000225AF4EEC53AF1EE10FA01DD41F002012A
:101E60009FED1D5AB4EEC54AF1EE10FA01DD41F0C6
:101E700004019FED195AF4EEC54AF1EE10FA01DDA6
:101E800041F008018A420ADD9FED145A35EE405AAE
:101E9000B0EE453A9FED115AB0EE450A07E0B1EEBB
:101EA000405AB0EE453A9FED0E5AB0EE450A00EBAF
:101EB000C00303EB4013074C04EB830383ED160AC6
:101EC00000EBC00303EB401304EB830383ED153AEF
:101ED00010BD0000A406012000401C4500409C45A8
:101EE0000000000000EBC00202EB4012414B03EB8C
:101EF0008202D2ED0A2AB0EE620A00EBC00202EBC7
:101F0000401203EB8202D2ED092AB0EE621A00EB16
:101F1000C00202EB401203EB8202D2ED0C2AF0EE7B
:101F2000620A00EBC00202EB401203EB8202D2ED28
:101F30000B2AF0EE621A00EBC00202EB401203EB38
:101F40008202D2ED022AB0EE622ADFED2B2AB4EE35
:101F5000E22AF1EE10FA01DD012200E00022114632
:101F600051B1DFED262A72EEC02AB0EE621ADFED23
:101F7000232AB0EE620A07E0F1EE402AB0EE621AC0
:101F8000DFED1F2AB0EE620A51B9DFED1C2A72EEB6
:101F9000E02AF0EE621ADFED192AF0EE620A07E09D
:101FA000F1EE602AF0EE621ADFED152AF0EE620A19
:101FB00000EBC00202EB40120E4B03EB820282EDFB
:101FC0000A0A00EBC00202EB401203EB820282ED30
:101FD000091A00EBC00202EB401203EB8202C2EDD1
:101FE0000C0A00EBC00202EB401203EB8202C2EDCE
:101FF0000B1A7047A406012000401C4500409C4578
:102000000000000000EBC00202EB4012414B03EB6A
:102010008202D2ED0C2AB0EE620A00EBC00202EBA3
:10202000401203EB8202D2ED0B2AB0EE621A00EBF3
:10203000C00202EB401203EB8202D2ED0E2AF0EE58
:10204000620A00EBC00202EB401203EB8202D2ED07
:102050000D2AF0EE621A00EBC00202EB401203EB15
:102060008202D2ED022AB0EE622ADFED2B2AB4EE14
:10207000E22AF1EE10FA01DD012200E00022114611
:1020800051B1DFED262A72EEC02AB0EE621ADFED02
:10209000232AB0EE620A07E0F1EE402AB0EE621A9F
:1020A000DFED1F2AB0EE620A51B9DFED1C2A72EE95
:1020B000E02AF0EE621ADFED192AF0EE620A07E07C
:1020C000F1EE602AF0EE621ADFED152AF0EE620AF8
:1020D00000EBC00202EB40120E4B03EB820282EDDA
:1020E0000C0A00EBC00202EB401203EB820282ED0D
:1020F0000B1A00EBC00202EB401203EB8202C2EDAE
:102100000E0A00EBC00202EB401203EB8202C2EDAA
:102110000D1A7047A406012000401C4500409C4554
:102120000000000000EBC00101EB4011374A02EB58
:102130008101D1ED023AF0EE632A00EBC00101EB20
:10214000401102EB8101D1ED013AB0EE633A00EBB0
:10215000C00101EB401102EB8101D1ED063AF0EE36
:10216000630A00BF00EBC00101EB401102EB8101EB
:10217000D1ED083AB0EE631A00BFC2EE833A73EEB7
:10218000813A70EEE33AB0EE630AF0EE003A80EE88
:10219000234AB0EE440A1E4991ED004AC0EE043ACB
:1021A00070EEE33AF0EE630A91ED004AC0EE043AB5
:1021B00073EE813AB0EE631AF1EE403AF0EE631A34
:1021C000F1EE613AB0EE632A00EBC00101EB401181
:1021D00002EB8101C1ED060A00EBC00101EB4011E9
:1021E00002EB8101C1ED051A00EBC00101EB4011CA
:1021F00002EB810181ED081A00EBC00101EB4011F7
:1022000002EB810181ED072A70470000A40601203E
:10221000CC01002010B52DED048B00EBC00303EBC7
:102220004013FE4C04EB8303D3ED069AF0EE695A9B
:1022300000BF00EBC00303EB401304EB8303D3EDBB
:10224000089AF0EE696A00BF00EBC00303EB40138D
:1022500004EB8303D3ED0A9AF0EE698A00BF00EB2A
:10226000C00303EB401304EB8303D3ED0C9AB0EEF1
:10227000690A00EBC00303EB401304EB8303D3EDC7
:102280000B9AB0EE697A00EBC00303EB401304EB4A
:102290008303D3ED0E9AF0EE690A00EBC00303EB63
:1022A000401304EB8303D3ED0D9AB0EE694A00EBC3
:1022B000C00303EB401304EB8303D3ED109AB0EE9D
:1022C000691A00EBC00303EB401304EB8303D3ED67
:1022D0000F9AB0EE699A00EBC00303EB401304EBD6
:1022E0008303D3ED129AF0EE691A00EBC00303EBFF
:1022F000401304EB8303D3ED119AB0EE696A00EB4F
:10230000C00303EB401304EB8303D3ED149AB0EE48
:10231000692A00EBC00303EB401304EB8303D3ED06
:10232000139AF0EE694A00EBC00303EB401304EB91
:102330008303D3ED169AF0EE692A00EBC00303EB9A
:10234000401304EB8303D3ED159AB0EE695A00EB0A
:10235000C00303EB401304EB8303D3ED189AB0EEF4
:10236000693A00EBC00303EB401304EB8303D3EDA6
:10237000179AF0EE697A00EBC00303EB401304EB0D
:102380008303D3ED1A9AF0EE693A00EBC00303EB36
:10239000401304EB8303D3ED199AB0EE698A00224F
:1023A000DFED9F9AF4EEE95AF1EE10FA01DD42F00A
:1023B0000102DFED9B9AF4EEE96AF1EE10FA01DD1D
:1023C00042F00202DFED969AF4EEE98AF1EE10FA9D
:1023D00001DD42F004020021082A15D2DFE802F0F4
:1023E0000406080A0C0E101201210EE002210CE076
:1023F00004210AE0082108E0102106E0202104E081
:10240000402102E0802100E000BF00BF01F0010395
:1024100053B1DFED849A79EEC09AB0EE697ADFEDC0
:10242000819AB0EE690A07E0F1EE409AB0EE697A5F
:10243000DFED7D9AB0EE690A01F0020353B1DFEDE2
:10244000799A79EEE09AB0EE694ADFED769AF0EE8D
:10245000690A07E0F1EE609AB0EE694ADFED729A20
:10246000F0EE690A01F0040353B1DFED6E9A79EEE4
:10247000C19AB0EE699ADFED6B9AB0EE691A07E087
:10248000F1EE419AB0EE699ADFED679AB0EE691A03
:1024900001F0080353B1DFED639A79EEE19AB0EEF3
:1024A000696ADFED609AF0EE691A07E0F1EE619A71
:1024B000B0EE696ADFED5C9AF0EE691A01F0100384
:1024C00053B1DFED589A79EEC29AF0EE694ADFED2A
:1024D000559AB0EE692A07E0F1EE429AF0EE694AA9
:1024E000DFED519AB0EE692A01F0200353B1DFED20
:1024F0004D9A79EEE29AB0EE695ADFED4A9AF0EE23
:10250000692A07E0F1EE629AB0EE695ADFED469A69
:10251000F0EE692A01F0400353B1DFED429A79EE03
:10252000C39AF0EE697ADFED3F9AB0EE693A07E0C0
:10253000F1EE439AF0EE697ADFED3B9AB0EE693A3C
:1025400001F0800353B1DFED379A79EEE39AB0EEF4
:10255000698ADFED349AF0EE693A07E0F1EE639AAA
:10256000B0EE698ADFED309AF0EE693A00EBC00315
:1025700003EB4013294C04EB830383ED0C0A00EBBF
:10258000C00303EB401304EB830383ED0B7A00EBF2
:10259000C00303EB401304EB8303C3ED0E0A00EB0F
:1025A000C00303EB401304EB830383ED0D4A00EB00
:1025B000C00303EB401304EB830383ED101A00EB1D
:1025C000C00303EB401304EB830383ED0F9A00EB8E
:1025D000C00303EB401304EB8303C3ED121A00EBBB
:1025E000C00303EB401304EB830383ED116A00EB9C
:1025F000C00303EB401304EB830383ED142A00EBC9
:10260000C00303EB401304EB8303C3ED134A00EB59
:10261000C00303EB401304EB830307E0A40601208F
:1026200000401C4500409C4500000000C3ED162AF8
:1026300000EBC00303EB401304EB830383ED155A57
:1026400000EBC00303EB401304EB830383ED183A64
:1026500000EBC00303EB401304EB8303C3ED177AD5
:1026600000EBC00303EB401304EB8303C3ED1A3A02
:1026700000EBC00303EB401304EB830383ED198AE3
:10268000BDEC048B10BD000000EBC00101EB40115C
:102690003F4A02EB810191ED060AF0EE400A00EBA1
:1026A000C00101EB401102EB810191ED080AB0EE8F
:1026B000401A00EBC00101EB401102EB810191EDEA
:1026C000050AF0EE401A00EBC00101EB401102EBED
:1026D000810191ED070AF0EE402A30EEC10AB0EE1A
:1026E000402A9FED2C0AB4EEC02AF1EE10FA25DB49
:1026F0009FED283A32EE433AB0EE430AB2EE043A86
:10270000C0EE033AB0EE630A2349D1ED003A80EE01
:10271000233A30EEC33AF0EE430AD1ED003A80EEB0
:10272000233A33EE013AB0EE431AB1EE403AF0EEFE
:10273000431AB1EE613AF0EE432A07E09FED170A23
:10274000F0EE402A9FED150AF0EE401A00EBC001B2
:1027500001EB40110E4A02EB8101C1ED060A00EBCC
:10276000C00101EB401102EB810181ED081A00EB81
:10277000C00101EB401102EB8101C1ED051A00EB34
:10278000C00101EB401102EB8101C1ED072A704746
:10279000A40601200000FA43CC0100200000000044
:1027A00000EBC00101EB4011154A02EB810191EDF4
:1027B000062AB0EE420A00BF00EBC00101EB401157
:1027C00002EB810191ED032AF0EE421AF0EE610A6C
:1027D00030EEC02AB0EE421AB0EE600A00EBC00143
:1027E00001EB401102EB810181ED060A00EBC00113
:1027F00001EB401102EB810181ED051A70470000E9
:10280000A406012000EBC00101EB4011374A02EBA6
:102810008101D1ED023AB0EE633A00EBC00101EB69
:10282000401102EB8101D1ED013AB0EE632A00EBD9
:10283000C00101EB401102EB8101D1ED063AB0EE8F
:10284000630A00EBC00101EB401102EB8101D1ED05
:10285000053AF0EE632A00EBC00101EB401102EBF8
:102860008101D1ED083AF0EE630A00EBC00101EB03
:10287000401102EB8101D1ED073AB0EE631A73EE1D
:10288000413A63EE823AF0EE631AB0EE004AC1EECE
:10289000843A73EE803AB0EE630AB0EE004AC1EEBD
:1028A000843A70EEE33AF0EE630A00EBC00101EB0C
:1028B000401102EB810181ED060A00EBC00101EB42
:1028C000401102EB8101C1ED052A00EBC00101EBD3
:1028D000401102EB8101C1ED080A00EBC00101EBE0
:1028E000401102EB810181ED071A7047A406012017
:1028F00070B52DED048B044604EBC40000EB4410CE
:10290000284901EB800090ED060AB0EE408A04EB06
:10291000C40000EB441001EB800090ED050AF0EEDE
:10292000408A04EBC40000EB441001EB800090ED02
:10293000010A10EE106A3046FDF747FC9FED1A0BB6
:1029400053EC102BFDF754FC01D2012000E00020D5
:10295000054655B19FED160A30EE480AF0EE408A62
:102960009FED130AB0EE408A07E0B1EE480AF0EEA0
:10297000408A9FED100AB0EE408A04EBC40000EBE1
:102980004410084901EB800080ED068A04EBC40086
:1029900000EB441001EB8000C0ED058ABDEC048B18
:1029A00070BD0000A4060120000000000000E03F10
:1029B00000409C450000000070B52DED048B0446DE
:1029C00004EBC40000EB44102A4901EB800090EDB9
:1029D000060AB0EE408A04EBC40000EB441001EBA1
:1029E000800090ED050AF0EE408A04EBC40000EB95
:1029F000441001EB800090ED010A10EE106A3046A1
:102A0000FDF7E3FB9FED1C0B53EC102BFDF7F0FBE8
:102A100001D2012000E0002005460DB9012000E0B0
:102A20000020054655B19FED160A30EE480AF0EE3B
:102A3000408A9FED130AB0EE408A07E0B1EE480AE3
:102A4000F0EE408A9FED0F0AB0EE408A04EBC4001E
:102A500000EB4410074901EB800080ED068A04EB8F
:102A6000C40000EB441001EB8000C0ED058ABDEC12
:102A7000048B70BDA4060120000000000000E03FB0
:102A800000409C450000000000EBC00101EB40113C
:102A90003E4A02EB810191ED061AB0EE410A00EBCD
:102AA000C00101EB401102EB810191ED051AF0EE3E
:102AB000411A00EBC00101EB401102EB810191EDE5
:102AC000081AF0EE410A00EBC00101EB401102EBE5
:102AD000810191ED071AB0EE412A00EBC00101EB34
:102AE000401102EB810191ED011AF0EE412AB6EEA0
:102AF000001AF4EEC12AF1EE10FA1DDD30EE603A54
:102B0000B0EE431A2249D1ED003A81EE233A30EE7D
:102B1000433AB0EE430AD1ED003A81EE233A33EE68
:102B2000203AF0EE430AB1EE413AF0EE431AB1EE2C
:102B3000613AB0EE432A07E09FED161AF0EE411A13
:102B40009FED141AB0EE412A00EBC00101EB4011D9
:102B50000E4A02EB810181ED060A00EBC00101EB98
:102B6000401102EB8101C1ED051A00EBC00101EB40
:102B7000401102EB8101C1ED080A00EBC00101EB3D
:102B8000401102EB810181ED072A7047A406012064
:102B9000CC010020000000002DED028B00EBC002F4
:102BA00002EB4012EE4B03EB820292ED188AB0EE7C
:102BB000480A00EBC00202EB401203EB820292EDE6
:102BC000178AB0EE484A00EBC00202EB401203EB5A
:102BD000820292ED1A8AF0EE480A00EBC00202EB84
:102BE000401203EB820292ED198AF0EE484A00EBA4
:102BF000C00202EB401203EB820292ED1C8AB0EE9F
:102C0000481A00EBC00202EB401203EB820292ED85
:102C10001B8AB0EE485A00EBC00202EB401203EBF5
:102C2000820292ED1E8AF0EE481A00EBC00202EB1F
:102C3000401203EB820292ED1D8AF0EE485A00EB3F
:102C4000C00202EB401203EB820292ED208AB0EE4A
:102C5000482A00EBC00202EB401203EB820292ED25
:102C60001F8AB0EE486A00EBC00202EB401203EB91
:102C7000820292ED228AF0EE482A00EBC00202EBBB
:102C8000401203EB820292ED218AF0EE486A00EBDB
:102C9000C00202EB401203EB820292ED248AB0EEF6
:102CA000483A00EBC00202EB401203EB820292EDC5
:102CB000238AB0EE487A00EBC00202EB401203EB2D
:102CC000820292ED268AF0EE483A00EBC00202EB57
:102CD000401203EB820292ED258AF0EE487A00EB77
:102CE000C00202EB401203EB820292ED028ABDEEBB
:102CF000C88A18EE101A01F0010252B19FED998AAC
:102D000038EE408AB0EE484A9FED968AB0EE480A07
:102D100007E0B1EE408AB0EE484A9FED938AB0EEEC
:102D2000480A01F0020252B19FED8E8A38EE608AA5
:102D3000F0EE484A9FED8B8AF0EE480A07E0B1EECC
:102D4000608AF0EE484A9FED888AF0EE480A01F06A
:102D5000040252B19FED838A38EE418AB0EE485AA0
:102D60009FED808AB0EE481A07E0B1EE418AB0EEDE
:102D7000485A9FED7D8AB0EE481A01F0080252B120
:102D80009FED788A38EE618AF0EE485A9FED758A99
:102D9000F0EE481A07E0B1EE618AF0EE485A9FED76
:102DA000728AF0EE481A01F0100252B19FED6D8A5E
:102DB00038EE428AB0EE486A9FED6A8AB0EE482A41
:102DC00007E0B1EE428AB0EE486A9FED678AB0EE46
:102DD000482A01F0200252B19FED628A38EE628AE1
:102DE000F0EE486A9FED5F8AF0EE482A07E0B1EE08
:102DF000628AF0EE486A9FED5C8AF0EE482A01F0A4
:102E0000400252B19FED578A38EE438AB0EE487ABD
:102E10009FED548AB0EE483A07E0B1EE438AB0EE37
:102E2000487A9FED518AB0EE483A01F0800252B1E3
:102E30009FED4C8A38EE638AF0EE487A9FED498A1E
:102E4000F0EE483A07E0B1EE638AF0EE487A9FED83
:102E5000468AF0EE483A00EBC00202EB4012404BCB
:102E600003EB820282ED180A00EBC00202EB401273
:102E700003EB820282ED174A00EBC00202EB401224
:102E800003EB8202C2ED1A0A00EBC00202EB401211
:102E900003EB8202C2ED194A00EBC00202EB4012C2
:102EA00003EB820282ED1C1A00EBC00202EB40121F
:102EB00003EB820282ED1B5A00EBC00202EB4012D0
:102EC00003EB8202C2ED1E1A00EBC00202EB4012BD
:102ED00003EB8202C2ED1D5A00EBC00202EB40126E
:102EE00003EB820282ED202A00EBC00202EB4012CB
:102EF00003EB820282ED1F6A00EBC00202EB40127C
:102F000003EB8202C2ED222A00EBC00202EB401268
:102F100003EB8202C2ED216A00EBC00202EB401219
:102F200003EB820282ED243A00EBC00202EB401276
:102F300003EB820282ED237A00EBC00202EB401227
:102F400003EB8202C2ED263A00EBC00202EB401214
:102F500003EB8202C2ED257ABDEC028B70470000C4
:102F6000A406012000409C450000000000EBC002C8
:102F700002EB4012254B03EB8202D2ED061AF0EE73
:102F8000610A00EBC00202EB401203EB8202D2EDB9
:102F9000081AB0EE610A00EBC00202EB401203EB2C
:102FA0008202D2ED071AB0EE611ADFED191AF4EEC3
:102FB000E10AF1EE10FA01D8012200E000221146E8
:102FC00051B1DFED141A71EEC01AB0EE611ADFEDE7
:102FD000111AB0EE610A07E0F1EE401AB0EE611A84
:102FE000DFED0D1AB0EE610A00EBC00202EB4012F9
:102FF000064B03EB820282ED080A00EBC00202EBF3
:10300000401203EB820282ED071A7047A4060120EA
:1030100000401C4500409C450000000000EBC00142
:1030200001EB4011644A02EB8101D1ED064AB0EE9A
:10303000644A00EBC00101EB401102EB8101D1EDCC
:10304000084AB0EE643A00EBC00101EB401102EB1C
:103050008101D1ED0A4AF0EE640A00EBC00101EBF8
:10306000401102EB8101D1ED094AF0EE643A00EB28
:10307000C00101EB401102EB8101D1ED0C4AB0EE31
:10308000641A00EBC00101EB401102EB8101D1EDAC
:103090000B4AB0EE642A00EBC00101EB401102EBD9
:1030A0008101D1ED0E4AF0EE641A00EBC00101EB94
:1030B000401102EB8101D1ED0D4AF0EE642A74EE6D
:1030C000434AB0EE640AB5EEC00AF1EE10FA20DB16
:1030D00071EE604AB0EE640ADFED384A80EE245AA1
:1030E000B0EE450AF0EE004A80EE245AB0EE450AF2
:1030F00071EE404AB0EE641A70EE804AF0EE640A57
:10310000F1EE404AB0EE642AF1EE424AF0EE643A43
:103110001FE071EEE04AB0EE640ADFED284A80EE6F
:10312000245AB0EE450AF0EE004A80EE245AB0EE82
:10313000450A71EEC04AF0EE641A70EE804AF0EE75
:10314000640AF1EE404AF0EE642AF1EE624AF0EED3
:10315000643A00EBC00101EB4011174A02EB810118
:10316000C1ED0A0A00EBC00101EB401102EB810145
:10317000C1ED093A00EBC00101EB401102EB810106
:1031800081ED0C1A00EBC00101EB401102EB810153
:1031900081ED0B2A00EBC00101EB401102EB810134
:1031A000C1ED0E1A00EBC00101EB401102EB8101F1
:1031B000C1ED0D2A70470000A406012000007A44EA
:1031C00000EBC00202EB4012254B03EB8202D2ED72
:1031D000061AB0EE610A00EBC00202EB401203EBEC
:1031E0008202D2ED051AF0EE610A00EBC00202EB9A
:1031F000401203EB8202D2ED021AB0EE611ADFED4B
:10320000191AB4EEE11AF1EE10FA01DD012200E024
:103210000022114651B1DFED141A71EEC01AF0EE22
:10322000610ADFED111AB0EE610A07E0F1EE401A13
:10323000F0EE610ADFED0D1AB0EE610A00EBC0029C
:1032400002EB4012064B03EB820282ED060A00EB12
:10325000C00202EB401203EB8202C2ED050A704786
:10326000A406012000401C4500409C4500000000D1
:1032700000EBC00202EB40122E4B03EB820292EDF8
:10328000062AF0EE420A00EBC00202EB401203EB0A
:10329000820292ED082AB0EE421A00EBC00202EB65
:1032A000401203EB820292ED0A2AB0EE420A00EBD2
:1032B000C00202EB401203EB820292ED092AF0EE0B
:1032C000421A9FED1D2AF4EEC20AF1EE10FA06DC56
:1032D0009FED192AB4EEC21AF1EE10FA01DD0122B7
:1032E00000E00022114651B19FED142A32EE402A2F
:1032F000F0EE421A9FED112AB0EE420A07E0B1EE5D
:10330000402AF0EE421A9FED0E2AB0EE420A00EB80
:10331000C00202EB4012074B03EB820282ED0A0A65
:1033200000EBC00202EB401203EB8202C2ED091A6D
:1033300070470000A406012000401C4500409C4549
:103340000000000000EBC00202EB4012364B03EB22
:103350008202D2ED062AF0EE620A00EBC00202EB16
:10336000401203EB8202D2ED082AB0EE621A00EBA3
:10337000C00202EB401203EB8202D2ED0A2AF0EE09
:10338000621A00EBC00202EB401203EB8202D2EDA4
:103390000C2AB0EE620A00EBC00202EB401203EB13
:1033A0008202D2ED0B2AB0EE622ADFED202AF4EE83
:1033B000E20AF1EE10FA0DDCDFED1C2AB4EEE21A9F
:1033C000F1EE10FA06DCDFED192AF4EEE21AF1EE66
:1033D00010FA01DD012200E00022114651B1DFEDBB
:1033E000142A72EEC02AB0EE622ADFED112AB0EE86
:1033F000620A07E0F1EE402AB0EE622ADFED0D2A04
:10340000B0EE620A00EBC00202EB4012064B03EB87
:10341000820282ED0C0A00EBC00202EB401203EBC9
:10342000820282ED0B2A7047A406012000401C4551
:1034300000409C450000000000EBC00202EB40127F
:10344000304B03EB820292ED062AB0EE421A00EBFB
:10345000C00202EB401203EB820292ED082AF0EE6A
:10346000421A00EBC00202EB401203EB820292ED23
:103470000A2AB0EE420A00EBC00202EB401203EB54
:10348000820292ED092AF0EE420A9FED1F2AB4EE65
:10349000C21AF1EE10FA06DC9FED1B2AF4EEC21AF6
:1034A000F1EE10FA01DD012200E00022114609B917
:1034B000012200E00022114651B19FED142A32EEA4
:1034C000402AF0EE420A9FED112AB0EE420A07E0D0
:1034D000B1EE402AF0EE420A9FED0D2AB0EE420A0C
:1034E00000EBC00202EB4012064B03EB820282EDBE
:1034F0000A0A00EBC00202EB401203EB8202C2EDAB
:10350000090A7047A406012000401C4500409C4564
:103510000000000000EBC00202EB4012394B03EB4D
:103520008202D2ED062AF0EE621A00EBC00202EB34
:10353000401203EB8202D2ED082AF0EE620A00EBA1
:10354000C00202EB401203EB8202D2ED0A2AB0EE77
:10355000621A00EBC00202EB401203EB8202D2EDD2
:103560000C2AB0EE620A00EBC00202EB401203EB41
:103570008202D2ED0B2AB0EE622ADFED232AF4EEAE
:10358000E21AF1EE10FA0DDCDFED1F2AF4EEE20A8A
:10359000F1EE10FA06DCDFED1C2AB4EEE21AF1EED1
:1035A00010FA01DD012200E00022114609B90122D2
:1035B00000E00022114651B1DFED142A72EEC02A5C
:1035C000B0EE622ADFED112AB0EE620A07E0F1EEFA
:1035D000402AB0EE622ADFED0E2AB0EE620A00EB5E
:1035E000C00202EB4012074B03EB820282ED0C0A91
:1035F00000EBC00202EB401203EB820282ED0B2AC9
:1036000070470000A406012000401C4500409C4576
:103610000000000070B52DED048B044604EBC400DF
:1036200000EB4410284901EB800090ED060AB0EE53
:10363000408A04EBC40000EB441001EB800090EDE5
:10364000050AF0EE408A04EBC40000EB441001EBE5
:10365000800090ED010A10EE106A3046FCF7B5FDCF
:103660009FED1A0B53EC102BFCF7C2FD01D2012089
:1036700000E00020054655B19FED160A30EE480ADD
:10368000F0EE408A9FED130AB0EE408A07E0B1EEFB
:10369000480AF0EE408A9FED100AB0EE408A04EB33
:1036A000C40000EB4410084901EB800080ED068A5D
:1036B00004EBC40000EB441001EB8000C0ED058A70
:1036C000BDEC048B70BD0000A406012000000000CA
:1036D0000000E03F00409C450000000000EBC001FE
:1036E00001EB40113A4A02EB810191ED064AB0EE3E
:1036F000440A00BF00EBC00101EB401102EB810165
:1037000091ED084AF0EE440A00BF00EBC00101EB66
:10371000401102EB810191ED014AB0EE441A00BF65
:1037200000EBC00101EB401102EB810191ED034A76
:10373000F0EE443A00EBC00101EB401102EB8101D5
:1037400091ED044AB0EE443A31EE234AB0EE441A09
:10375000F0EE431A31EE404AB0EE442A71EE404A90
:103760001C4991ED005A84EE854A34EE004AB0EED1
:10377000440A31EEE04AF0EE442A71EEE04A91ED5F
:10378000005A84EE854A34EE204AF0EE440A00EBFB
:10379000C00101EB401102EB810181ED060A00EB53
:1037A000C00101EB401102EB810181ED052A00EB24
:1037B000C00101EB401102EB8101C1ED080A00EBF1
:1037C000C00101EB401102EB8101C1ED072A7047F6
:1037D000A4060120CC0100202DED028B00EBC002DD
:1037E00002EB4012EE4B03EB820292ED088AB0EE40
:1037F000480A00EBC00202EB401203EB820292ED9A
:10380000078AB0EE484A00EBC00202EB401203EB1D
:10381000820292ED0A8AF0EE480A00EBC00202EB47
:10382000401203EB820292ED098AF0EE484A00EB67
:10383000C00202EB401203EB820292ED0C8AB0EE62
:10384000481A00EBC00202EB401203EB820292ED39
:103850000B8AB0EE485A00EBC00202EB401203EBB9
:10386000820292ED0E8AF0EE481A00EBC00202EBE3
:10387000401203EB820292ED0D8AF0EE485A00EB03
:10388000C00202EB401203EB820292ED108AB0EE0E
:10389000482A00EBC00202EB401203EB820292EDD9
:1038A0000F8AB0EE486A00EBC00202EB401203EB55
:1038B000820292ED128AF0EE482A00EBC00202EB7F
:1038C000401203EB820292ED118AF0EE486A00EB9F
:1038D000C00202EB401203EB820292ED148AB0EEBA
:1038E000483A00EBC00202EB401203EB820292ED79
:1038F000138AB0EE487A00EBC00202EB401203EBF1
:10390000820292ED168AF0EE483A00EBC00202EB1A
:10391000401203EB820292ED158AF0EE487A00EB3A
:10392000C00202EB401203EB820292ED028ABDEE6E
:10393000C88A18EE101A01F0010252B19FED998A5F
:1039400038EE408AB0EE484A9FED968AB0EE480ABB
:1039500007E0B1EE408AB0EE484A9FED938AB0EEA0
:10396000480A01F0020252B19FED8E8A38EE608A59
:10397000F0EE484A9FED8B8AF0EE480A07E0B1EE80
:10398000608AF0EE484A9FED888AF0EE480A01F01E
:10399000040252B19FED838A38EE418AB0EE485A54
:1039A0009FED808AB0EE481A07E0B1EE418AB0EE92
:1039B000485A9FED7D8AB0EE481A01F0080252B1D4
:1039C0009FED788A38EE618AF0EE485A9FED758A4D
:1039D000F0EE481A07E0B1EE618AF0EE485A9FED2A
:1039E000728AF0EE481A01F0100252B19FED6D8A12
:1039F00038EE428AB0EE486A9FED6A8AB0EE482AF5
:103A000007E0B1EE428AB0EE486A9FED678AB0EEF9
:103A1000482A01F0200252B19FED628A38EE628A94
:103A2000F0EE486A9FED5F8AF0EE482A07E0B1EEBB
:103A3000628AF0EE486A9FED5C8AF0EE482A01F057
:103A4000400252B19FED578A38EE438AB0EE487A71
:103A50009FED548AB0EE483A07E0B1EE438AB0EEEB
:103A6000487A9FED518AB0EE483A01F0800252B197
:103A70009FED4C8A38EE638AF0EE487A9FED498AD2
:103A8000F0EE483A07E0B1EE638AF0EE487A9FED37
:103A9000468AF0EE483A00EBC00202EB4012404B7F
:103AA00003EB820282ED080A00EBC00202EB401237
:103AB00003EB820282ED074A00EBC00202EB4012E8
:103AC00003EB8202C2ED0A0A00EBC00202EB4012D5
:103AD00003EB8202C2ED094A00EBC00202EB401286
:103AE00003EB820282ED0C1A00EBC00202EB4012E3
:103AF00003EB820282ED0B5A00EBC00202EB401294
:103B000003EB8202C2ED0E1A00EBC00202EB401280
:103B100003EB8202C2ED0D5A00EBC00202EB401231
:103B200003EB820282ED102A00EBC00202EB40128E
:103B300003EB820282ED0F6A00EBC00202EB40123F
:103B400003EB8202C2ED122A00EBC00202EB40122C
:103B500003EB8202C2ED116A00EBC00202EB4012DD
:103B600003EB820282ED143A00EBC00202EB40123A
:103B700003EB820282ED137A00EBC00202EB4012EB
:103B800003EB8202C2ED163A00EBC00202EB4012D8
:103B900003EB8202C2ED157ABDEC028B7047000088
:103BA000A406012000409C45000000002DED028B82
:103BB00000EBC00202EB4012EE4B03EB820292EDEF
:103BC0001A8AB0EE480A00EBC00202EB401203EB87
:103BD000820292ED198AB0EE484A00EBC00202EB75
:103BE000401203EB820292ED1C8AF0EE480A00EBD1
:103BF000C00202EB401203EB820292ED1B8AF0EE50
:103C0000484A00EBC00202EB401203EB820292ED45
:103C10001E8AB0EE481A00EBC00202EB401203EB22
:103C2000820292ED1D8AB0EE485A00EBC00202EB10
:103C3000401203EB820292ED208AF0EE481A00EB6C
:103C4000C00202EB401203EB820292ED1F8AF0EEFB
:103C5000485A00EBC00202EB401203EB820292EDE5
:103C6000228AB0EE482A00EBC00202EB401203EBBE
:103C7000820292ED218AB0EE486A00EBC00202EBAC
:103C8000401203EB820292ED248AF0EE482A00EB08
:103C9000C00202EB401203EB820292ED238AF0EEA7
:103CA000486A00EBC00202EB401203EB820292ED85
:103CB000268AB0EE483A00EBC00202EB401203EB5A
:103CC000820292ED258AB0EE487A00EBC00202EB48
:103CD000401203EB820292ED288AF0EE483A00EBA4
:103CE000C00202EB401203EB820292ED278AF0EE53
:103CF000487A00EBC00202EB401203EB820292ED25
:103D0000038ABDEEC88A18EE101A01F0010252B102
:103D10009FED998A38EE408AB0EE484A9FED968A28
:103D2000B0EE480A07E0B1EE408AB0EE484A9FED97
:103D3000938AB0EE480A01F0020252B19FED8E8ADA
:103D400038EE608AF0EE484A9FED8B8AF0EE480A22
:103D500007E0B1EE608AF0EE484A9FED888AF0EE07
:103D6000480A01F0040252B19FED838A38EE418A7D
:103D7000B0EE485A9FED808AB0EE481A07E0B1EEE7
:103D8000418AB0EE485A9FED7D8AB0EE481A01F0A4
:103D9000080252B19FED788A38EE618AF0EE485AF7
:103DA0009FED758AF0EE481A07E0B1EE618AF0EEF9
:103DB000485A9FED728AF0EE481A01F0100252B193
:103DC0009FED6D8A38EE428AB0EE486A9FED6A8AAE
:103DD000B0EE482A07E0B1EE428AB0EE486A9FEDA5
:103DE000678AB0EE482A01F0200252B19FED628A44
:103DF00038EE628AF0EE486A9FED5F8AF0EE482A5C
:103E000007E0B1EE628AF0EE486A9FED5C8AF0EE60
:103E1000482A01F0400252B19FED578A38EE438A9A
:103E2000B0EE487A9FED548AB0EE483A07E0B1EE22
:103E3000438AB0EE487A9FED518AB0EE483A01F0DD
:103E4000800252B19FED4C8A38EE638AF0EE487AD8
:103E50009FED498AF0EE483A07E0B1EE638AF0EE52
:103E6000487A9FED468AF0EE483A00EBC00202EB3A
:103E70004012404B03EB820282ED1A0A00EBC002B3
:103E800002EB401203EB820282ED194A00EBC00202
:103E900002EB401203EB8202C2ED1C0A00EBC002EF
:103EA00002EB401203EB8202C2ED1B4A00EBC002A0
:103EB00002EB401203EB820282ED1E1A00EBC002FD
:103EC00002EB401203EB820282ED1D5A00EBC002AE
:103ED00002EB401203EB8202C2ED201A00EBC0029B
:103EE00002EB401203EB8202C2ED1F5A00EBC0024C
:103EF00002EB401203EB820282ED222A00EBC002A9
:103F000002EB401203EB820282ED216A00EBC00259
:103F100002EB401203EB8202C2ED242A00EBC00246
:103F200002EB401203EB8202C2ED236A00EBC002F7
:103F300002EB401203EB820282ED263A00EBC00254
:103F400002EB401203EB820282ED257A00EBC00205
:103F500002EB401203EB8202C2ED283A00EBC002F2
:103F600002EB401203EB8202C2ED277ABDEC028B1A
:103F700070470000A406012000409C45000000009E
:103F800010B52DED0A8B00EBC00303EB4013FE4C84
:103F900004EB830393ED06CAF0EE4C4A00BF00EB3E
:103FA000C00303EB401304EB830393ED08CAF0EE68
:103FB0004C6A00BF00EBC00303EB401304EB830328
:103FC00093ED0ACAB0EE4C7A00BF00EBC00303EBDE
:103FD000401304EB830393ED0CCAF0EE4C5A00BF80
:103FE00000EBC00303EB401304EB830393ED0ECA15
:103FF000B0EE4C8A00BF00EBC00303EB401304EBB0
:10400000830393ED10CAB0EE4C9A00BF00EBC003DF
:1040100003EB401304EB830393ED12CAF0EE4C9ACA
:1040200000BF00EBC00303EB401304EB830393EDED
:1040300014CAF0EE4CAA00BF00EBC00303EB401320
:1040400004EB830393ED16CAB0EE4C0A00EBC003F9
:1040500003EB401304EB830393ED15CAF0EE4C8A97
:1040600000EBC00303EB401304EB830393ED18CA8A
:10407000F0EE4C0A00EBC00303EB401304EB8303A8
:1040800093ED17CAF0EE4C7A00EBC00303EB40133C
:1040900004EB830393ED1ACAB0EE4C1A00EBC00395
:1040A00003EB401304EB830393ED19CAB0EE4CAA63
:1040B00000EBC00303EB401304EB830393ED1CCA36
:1040C000F0EE4C1A00EBC00303EB401304EB830348
:1040D00093ED1BCAB0EE4C5A00EBC00303EB401348
:1040E00004EB830393ED1ECAB0EE4C2A00EBC00331
:1040F00003EB401304EB830393ED1DCAB0EE4C4A6F
:1041000000EBC00303EB401304EB830393ED20CAE1
:10411000F0EE4C2A00EBC00303EB401304EB8303E7
:1041200093ED1FCAB0EE4CBA00EBC00303EB401393
:1041300004EB830393ED22CAB0EE4C3A00EBC003CC
:1041400003EB401304EB830393ED21CAF0EE4CBA6A
:1041500000EBC00303EB401304EB830393ED24CA8D
:10416000F0EE4C3A00EBC00303EB401304EB830387
:1041700093ED23CAB0EE4C6A00219FED84CAF4EEA1
:10418000CC4AF1EE10FA01DD41F001019FED7FCA4A
:10419000F4EECC6AF1EE10FA01DD41F002019FED80
:1041A0007BCAB4EECC7AF1EE10FA01DD41F00401E5
:1041B0009FED76CAF4EECC5AF1EE10FA01DD41F033
:1041C00008019FED72CAB4EECC8AF1EE10FA01DD5F
:1041D00041F010019FED6DCAB4EECC9AF1EE10FAE9
:1041E00001DD41F020019FED69CAF4EECC9AF1EEB9
:1041F00010FA01DD41F040019FED64CAF4EECCAA53
:10420000F1EE10FA01DD41F08001614B5A5C02F0E1
:10421000010353B19FED5FCA3CEE40CAF0EE4C8AF9
:104220009FED5CCAB0EE4C0A07E0B1EE40CAF0EE7A
:104230004C8A9FED59CAB0EE4C0A02F0020353B10A
:104240009FED54CA3CEE60CAF0EE4C7A9FED51CA25
:10425000F0EE4C0A07E0B1EE60CAF0EE4C7A9FED4A
:104260004ECAF0EE4C0A02F0040353B19FED49CA66
:104270003CEE41CAB0EE4CAA9FED46CAB0EE4C1AD5
:1042800007E0B1EE41CAB0EE4CAA9FED43CAB0EED2
:104290004C1A02F0080353B19FED3ECA3CEE61CACE
:1042A000B0EE4C5A9FED3BCAF0EE4C1A07E0B1EE6F
:1042B00061CAB0EE4C5A9FED38CAF0EE4C1A02F0CB
:1042C000100353B19FED33CA3CEE42CAB0EE4C4AE4
:1042D0009FED30CAB0EE4C2A07E0B1EE42CAB0EE14
:1042E0004C4A9FED2DCAB0EE4C2A02F0200353B188
:1042F0009FED28CA3CEE62CAB0EE4CBA9FED25CACB
:10430000F0EE4C2A07E0B1EE62CAB0EE4CBA9FED77
:1043100022CAF0EE4C2A02F0400353B19FED1DCAB1
:104320003CEE43CAF0EE4CBA9FED1ACAB0EE4C3ADE
:1043300007E0B1EE43CAF0EE4CBA9FED17CAB0EEFB
:104340004C3A02F0800353B19FED12CA3CEE63CAAF
:10435000B0EE4C6A9FED0FCAF0EE4C3A07E0B1EEBA
:1043600063CAB0EE4C6A9FED0CCAF0EE4C3A00EB1B
:10437000C00303EB4013044C04EB830383ED160AE4
:1043800000EBC0030AE00000A406012000401C4529
:10439000AC2A012000409C450000000003EB4013C4
:1043A00004EB8303C3ED158A00EBC00303EB40135A
:1043B00004EB8303C3ED180A00EBC00303EB4013C7
:1043C00004EB8303C3ED177A00EBC00303EB401348
:1043D00004EB830383ED1A1A00EBC00303EB4013D5
:1043E00004EB830383ED19AA00EBC00303EB401336
:1043F00004EB8303C3ED1C1A00EBC00303EB401373
:1044000004EB830383ED1B5A00EBC00303EB401363
:1044100004EB830383ED1E2A00EBC00303EB401380
:1044200004EB830383ED1D4A00EBC00303EB401351
:1044300004EB8303C3ED202A00EBC00303EB40131E
:1044400004EB830383ED1FBA00EBC00303EB4013BF
:1044500004EB830383ED223A00EBC00303EB40132C
:1044600004EB8303C3ED21BA00EBC00303EB40135D
:1044700004EB8303C3ED243A00EBC00303EB4013CA
:1044800004EB830383ED236ABDEC0A8B10BD0000AF
:1044900000EBC00101EB4011334A02EB810191EDC9
:1044A000063AF0EE430A00EBC00101EB401102EBCB
:1044B000810191ED083AB0EE431A00BF00BF00EB56
:1044C000C00101EB401102EB810191ED013AF0EEE8
:1044D000432A30EEC13AB0EE430ADFED243AB7EE9C
:1044E000003A02EEA33AC0EE033AB0EE630AF1EEF0
:1044F000403A1F4991ED004A83EE843A33EE203A68
:10450000F0EE430AD1ED003A80EE233A33EE013A61
:10451000B0EE431AB1EE403AF0EE431AB1EE613A12
:10452000B0EE432A00EBC00101EB401102EB810128
:10453000C1ED060A00EBC00101EB401102EB810165
:1045400081ED081A00EBC00101EB401102EB810183
:10455000C1ED051A00EBC00101EB401102EB810136
:1045600081ED072A70470000A406012000007A446C
:10457000CC01002000EBC00202EB4012414B03EBE8
:104580008202D2ED0A2AB0EE620A00EBC00202EB10
:10459000401203EB8202D2ED092AB0EE621A00EB60
:1045A000C00202EB401203EB8202D2ED0C2AF0EEC5
:1045B000620A00EBC00202EB401203EB8202D2ED72
:1045C0000B2AF0EE621A00EBC00202EB401203EB82
:1045D0008202D2ED022AB0EE622ADFED2B2AB4EE7F
:1045E000E22AF1EE10FA01DD012200E0002211467C
:1045F00051B1DFED262A72EEC02AB0EE621ADFED6D
:10460000232AB0EE620A07E0F1EE402AB0EE621A09
:10461000DFED1F2AB0EE620A51B9DFED1C2A72EEFF
:10462000E02AF0EE621ADFED192AF0EE620A07E0E6
:10463000F1EE602AF0EE621ADFED152AF0EE620A62
:1046400000EBC00202EB40120E4B03EB820282ED44
:104650000A0A00EBC00202EB401203EB820282ED79
:10466000091A00EBC00202EB401203EB8202C2ED1A
:104670000C0A00EBC00202EB401203EB8202C2ED17
:104680000B1A7047A406012000401C4500409C45C1
:104690000000000000EBC00101EB4011314A02EBC9
:1046A000810191ED062AF0EE420A00BF00EBC00145
:1046B00001EB401102EB810191ED082AB0EE420AB4
:1046C00000EBC00101EB401102EB810191ED072AE3
:1046D000B0EE421A00EBC00101EB401102EB810188
:1046E00091ED0A2AF0EE421A00BF9FED1F2AF4EE68
:1046F000C21AF1EE10FA1FDD9FED1B2AF4EEC20A7A
:10470000F1EE10FA01DD012200E00022114651B164
:104710009FED162A32EE402AB0EE421A9FED132A80
:10472000B0EE420A07E0B1EE402AB0EE421A9FED29
:10473000102AB0EE420A03E09FED0D2AB0EE421AB5
:1047400000EBC00101EB4011064A02EB810181ED53
:10475000080A00EBC00101EB401102EB810181ED81
:10476000071A7047A406012000401C4500409C45E4
:104770000000000000EBC00101EB40116E4A02EBAB
:10478000810191ED060AF0EE401A00EBC00101EB49
:10479000401102EB810191ED080AF0EE400A00EBB6
:1047A000C00101EB401102EB810191ED0A0AB0EE6C
:1047B000402A00EBC00101EB401102EB810191EDB9
:1047C000050AF0EE403A00EBC00101EB401102EBAC
:1047D000810191ED070AB0EE404A00EBC00101EB08
:1047E000401102EB810191ED090AF0EE404A31EEF1
:1047F000E00AF0EE402A9FED510AF4EEC02AF1EEF5
:1048000010FA5ADB9FED4D5A32EEC55AB0EE450A0A
:104810009FED4A5AC0EE055AB0EE650A4849D1EDFF
:10482000005A80EE255A31EEC55AF0EE451AB0EE28
:10483000401AB1EE405AF0EE453A9FED425A20EE52
:10484000055AB0EE450A32EE605AB0EE453AB4EE83
:10485000C30AF1EE10FA01DDB0EE430AB5EEC00A6C
:10486000F1EE10FA03D29FED385AB0EE450AB0EEE1
:10487000005AC0EE055AB0EE650A3149D1ED005A32
:1048800080EE255A32EE455AB0EE452AD1ED005A57
:1048900080EE255AD1ED005A81EE256A35EE065A92
:1048A00035EE205AF0EE450AB1EE405AF0EE454A98
:1048B00030EE015AB0EE454A0BE09FED230AF0EED0
:1048C000403A9FED210AB0EE404A9FED1F0AF0EEFC
:1048D000404A00EBC00101EB4011174A02EB810195
:1048E000C1ED061A00EBC00101EB401102EB8101A2
:1048F000C1ED080A00EBC00101EB401102EB8101A0
:1049000081ED0A2A00EBC00101EB401102EB8101AD
:10491000C1ED053A00EBC00101EB401102EB810152
:1049200081ED074A00EBC00101EB401102EB810170
:10493000C1ED094A70470000A40601200000FA43B7
:10494000CC010020000070420000000000EBC0011C
:1049500001EB40111B4A02EB810191ED062AF0EEBA
:10496000420A00BF00EBC00101EB401102EB8101E4
:1049700091ED012AB0EE420A00EBC00101EB4011BB
:1049800002EB810191ED032AF0EE421A30EE212A6A
:10499000B0EE420A30EE602AB0EE421AF0EE400A63
:1049A00000EBC00101EB401102EB8101C1ED060AF1
:1049B00000EBC00101EB401102EB810181ED051A12
:1049C00070470000A406012000EBC00202EB401279
:1049D000304B03EB820292ED062AF0EE420A00EB26
:1049E000C00202EB401203EB820292ED082AB0EE05
:1049F000421A00EBC00202EB401203EB820292ED7E
:104A00000A2AB0EE420A00EBC00202EB401203EBAE
:104A1000820292ED092AF0EE421A9FED1F2AF4EE6F
:104A2000C20AF1EE10FA01DC012200E000229FED43
:104A30001A2AB4EEC21AF1EE10FA01DD012300E0E9
:104A4000002382EA030151B19FED142A32EE402A7D
:104A5000F0EE421A9FED112AB0EE420A07E0B1EEE5
:104A6000402AF0EE421A9FED0E2AB0EE420A00EB09
:104A7000C00202EB4012074B03EB820282ED0A0AEE
:104A800000EBC00202EB401203EB8202C2ED091AF6
:104A900070470000A406012000401C4500409C45D2
:104AA0000000000000EBC00202EB4012304B03EBB1
:104AB000820292ED062AF0EE420A00EBC00202EBFF
:104AC000401203EB820292ED082AB0EE421A00EB8C
:104AD000C00202EB401203EB820292ED0A2AB0EE12
:104AE000420A00EBC00202EB401203EB820292ED9D
:104AF000092AF0EE421A9FED1F2AF4EEC20AF1EEE7
:104B000010FA01DD012200E000229FED1A2AB4EE26
:104B1000C21AF1EE10FA01DD012300E0002382EA5F
:104B2000030151B19FED142A32EE402AF0EE421AF1
:104B30009FED112AB0EE420A07E0B1EE402AF0EEF6
:104B4000421A9FED0E2AB0EE420A00EBC00202EBC1
:104B50004012074B03EB820282ED0A0A00EBC0020F
:104B600002EB401203EB8202C2ED091A704700000B
:104B7000A406012000401C4500409C4500000000A8
:104B80002DE9F84304460025002634B1012C38D025
:104B9000022C44D0032C71D171E056490888FCF7EF
:104BA00003FD5549086053490988491C88B2FCF740
:104BB000FBFC524908604F490988891C88B2FCF700
:104BC000F3FC4F4908604B490988C91C88B2FCF7BF
:104BD000EBFC4C49086047490988091D88B2FCF77D
:104BE000E3FC4949086008460078464F00903B784E
:104BF000434F3A78414F39783F4F387804F0E2F824
:104C000075E03C490888FCF78FFC4049086008467D
:104C1000007840B23E49087004F024F867E0354956
:104C20000888FCF7ADFC3449086000250846008878
:104C300086B200271FE005F1B001C8B204F0DAF82F
:104C40003349087804F0D6F8102004F0D3F8681C33
:104C5000C5B24FF0000809E02E49885D04F0F8F86D
:104C6000701C86B208F1010000F0FF08B8F1800F57
:104C7000F2DB781CC7B2082FDDDB38E032E01D49DB
:104C80000888FCF72BFC214908601A490988891C0F
:104C900088B2FCF723FC1E4991F9001008441E4914
:104CA000086014490988091D88B2FCF77DFC124987
:104CB000086016490978B031C8B204F09BF816496B
:104CC000097801F00F0004F095F813490978C1F351
:104CD000031141F0100004F08DF80749087804F042
:104CE000B7F804E0E1B25220FBF7EAFF00BF00BFD3
:104CF000BDE8F883340000208C00002090000020E4
:104D000094000020980000209C000020B4000020A7
:104D1000DD000020E8020020B800002070B5044645
:104D2000072C78D2DFE804F0042D42576C788E000F
:104D300053490888FCF738FC5249086050490988F3
:104D4000491C88B2FCF730FC4F4908604C4909887F
:104D5000891C88B2FCF728FC4C490860484909883E
:104D6000C91C88B2FCF720FC494908600D462B7825
:104D7000464D2A78444D2978424D287804F0E8FAC7
:104D80007BE03F490888FCF7BBFB424908603C498F
:104D90000988091D88B2FCF7B3FB3F490860084643
:104DA00001683C48006804F005F966E03449088869
:104DB000FCF7A6FB3749086031490988091D88B20C
:104DC000FCF79EFB344908600846016831480068DA
:104DD00004F07EFA51E02A490888FCF791FB2D493E
:104DE000086027490988091D88B2FCF789FB2A4910
:104DF0000860084601682748006804F03FFA3CE074
:104E00001F490888FCF79CFB1E490860098888B286
:104E100004F0C2F931E02BE019490888FCF790FB57
:104E20001849086016490988891C88B2FCF7BCFB40
:104E3000154908600A461178124A128890B204F0A7
:104E40007BFA1AE00E490888FCF77AFB0D490860E6
:104E50000B490988891C88B2FCF7A6FB0A4908603F
:104E60000A461178074A128890B204F05BFA04E00F
:104E7000E1B25220FBF724FF00BF00BF70BD00006D
:104E8000340000208C0000209000002094000020BE
:104E900098000020B4000020B80000202DE9F04167
:104EA00005464FF47074802625B1012D21D0022DC6
:104EB00074D12CE03D490888FCF776FB3C4908603A
:104EC0003A490988491C88B2FCF76EFB39490860E9
:104ED00036490988891C88B2FCF766FB36490860A8
:104EE0000B461A78334B1978314B187804F074FA62
:104EF00059E02E490888FCF717FB3049086008463E
:104F0000007840B22E49087004F034FA4BE027498B
:104F10000888FCF735FB264908604FF4707480263A
:104F2000002737E0304604F065FA802004F062FA8A
:104F30004FF000080DE01E4909682144214A505CE9
:104F400004F0A8FAA4F1400084B208F1010000F0D6
:104F5000FF08B8F1100FEEDB04F5846084B24FF067
:104F600000080DE0124909682144164A505C04F01B
:104F700091FAA4F1400084B208F1010000F0FF08AA
:104F8000B8F1100FEEDB04F2E13084B2701CC6B24F
:104F9000781CC7B2202FC5DB05E0FFE7E9B252203D
:104FA000FBF78EFE00BF00BFBDE8F081340000209B
:104FB0008C0000209000002094000020B40000200D
:104FC000DF000020E802002010B50446E4B91249D1
:104FD0000888FCF7E9FA114908600F490988491C5B
:104FE00088B2FCF78DFA0E4908600B490988491D03
:104FF00088B2FCF7D9FA0B4908600A461178074ACB
:10500000107805F0F7F804E0E1B25220FBF758FE03
:1050100000BF00BF10BD0000340000208C00002045
:10502000B4000020900000207047000070B50446D6
:10503000002144480078FCF731F903F014F801210D
:1050400041480078FCF72AF903F00DF800213E48AA
:105050000078FCF723F903F006F8002517E004F0C8
:10506000800138480078FCF719F96006040E012128
:1050700035480078FCF712F902F0F5FF00213248BC
:105080000078FCF70BF902F0EEFF681CC5B2042DA6
:10509000E5DB00212B480078FCF700F902F0E3FF84
:1050A00000250FE0012128480078FCF7F7F802F00E
:1050B000DAFF002124480078FCF7F0F802F0D3FF73
:1050C000681CC5B2042DEDDB002517E004F080015B
:1050D0001C480078FCF7E2F86006040E01211A482B
:1050E0000078FCF7DBF802F0BEFF002116480078DC
:1050F000FCF7D4F802F0B7FF681CC5B2042DE5DB5D
:10510000002110480078FCF7C9F802F0ACFF002538
:105110000FE001210C480078FCF7C0F802F0A3FF73
:10512000002109480078FCF7B9F802F09CFF681CE0
:10513000C5B2042DEDDB012102480078FCF7AEF882
:1051400070BD00002D0100202E01002010B5044686
:1051500014B1012C2AD114E018490888FCF724FA6C
:105160001749086015490988491C88B2FCF71CFAE0
:10517000144908600A461178114A107805F0BAFB04
:1051800019E00E490888FCF70FFA0D4908600B4931
:105190000988491C88B2FCF7B3F90B490860084933
:1051A00008780949096805F0AFFB04E0E1B2522034
:1051B000FBF786FD00BF00BF10BD000034000020DB
:1051C0008C00002090000020B400002010B50446A0
:1051D00015480068042800D110BD13480068052850
:1051E00002D112480480F7E70F480068062818D15A
:1051F0000E48008800EB04200C49088000200A4972
:1052000008600B490870FBF7BFF9AA2004F021FAE7
:10521000012004F01EFA002004F01BFAF02004F034
:1052200018FA00BFD8E70000080000201400002092
:105230001000002070B504460DE0002500F0BAFF14
:1052400000BF00F091FF064600F08CFFB6FBF0F5C2
:105250000A2DF6D3641E002CEFDC70BD704770B5CC
:1052600004460EE0002500F0A5FF00BF00F07CFF23
:10527000064600F077FFB6FBF0F5B5F57A7FF5D37B
:10528000641E002CEEDC70BD10B5044624B1012C68
:105290000CD0022C18D114E00F490888FCF784F9CF
:1052A0000E490860087805F0A5FB12E00A49088855
:1052B000FCF726F90A4908600846006805F0D8FBA3
:1052C00007E005F0DFFB04E0E1B25220FBF7F8FC59
:1052D00000BF00BF10BD0000340000208C00002083
:1052E000B400002010B586B0044614B1012C76D16C
:1052F00014E03F490888FCF757F93E4908603C49EB
:105300000988491C88B2FCF74FF93B4908600A46F6
:105310001178384A107805F057F865E03449088864
:10532000FCF702F93349086031490988091D88B240
:10533000FCF726F9304908602D490988083188B200
:10534000FCF71EF92D490860294909880C3188B2FB
:10535000FCF716F92A49086025490988103188B2F6
:10536000FCF70EF92749086021490988143188B2F1
:10537000FCF706F9244908601D490988183188B2EC
:10538000FCF7FEF821490860194909881C3188B2E8
:10539000FCF7F6F81E49086015490988203188B2E3
:1053A000FCF7EEF81B4908600846006818490968D0
:1053B000164A1268144B1B68CDE90132CDE903107F
:1053C0001048006800900E4803680C4802680A48BC
:1053D00001680848006804F073FF05E0FFE7E1B2E8
:1053E0005220FBF76DFC00BF00BF06B010BD0000EF
:1053F000340000208C000020900000209400002049
:10540000980000209C000020A0000020A4000020A4
:10541000A8000020AC00002010B504461B4800681E
:10542000042808D11A480088401E1A490860002044
:105430001949086010BD1948007860401749087084
:10544000174815490968445413480068401C12491C
:105450000860084600680F490968884213D1002097
:105460000A4908600C4801680D48FBF743F8AA2078
:1054700004F0EFF8012004F0ECF8002004F0E9F863
:10548000F12004F0E6F800BFD4E700000800002097
:105490000E000020180000201C000020100000203A
:1054A000D40100200146002002E0491C421CD0B279
:1054B0000A78002AF9D170477047000010B50446F9
:1054C0000F2C7DD2DFE804F0960896222D429696A6
:1054D00096964D5C966793004B490888FCF710F848
:1054E0004A49086048490988091D88B2FCF75CF8F8
:1054F0004749086045480068112804D108460078EB
:105500004449087000E000BF00BF7BE03E490888C6
:10551000FCF736F83D49086008460068FBF7B2FB27
:1055200070E039490888FCF72BF83B490860364998
:105530000988091D88B2FCF723F835490860084638
:10554000016835480068FCF765F95BE02E4908887A
:10555000FCF716F83049086008460068FCF732F995
:1055600050E029490888FCF71FF82B490860002003
:1055700001E0411CC8B2284909688842F9D341E0DA
:1055800021490888FCF710F823490860084600689C
:10559000FFF750FE36E01C490888FBF7F1FF1E4973
:1055A000086019490988091D88B2FBF7E9FF184905
:1055B000086015490988083188B2FBF7C1FF00E08F
:1055C00018E016490860104909880A3188B2FBF7CB
:1055D000D7FF134908601148008882B20846036863
:1055E0000B4801680C48006803F02AFA0AE003F04F
:1055F000A5F907E0E1B25220FBF762FB0020094960
:10560000087000BF00BF10BD34000020B4000020AF
:1056100090000020840000208C00002094000020D6
:10562000980000200000002010B51048006840F4E9
:1056300070000E4908600E48006840F001000C49F7
:10564000086000204860C8620846006809490840B0
:10565000074908604FF41F0088600846006820F47E
:105660008020086005F0F2FA10BD000088ED00E02F
:1056700000100240FFFFF6FE10B50121024805F0C0
:1056800077FD05F017F910BD0010004000EBC002D7
:1056900002EB4012254B03EB820292ED062AB0EE9C
:1056A000420A00EBC00202EB401203EB820292EDD1
:1056B000082AF0EE420A00EBC00202EB401203EBB4
:1056C000820292ED012AF0EE421A00EBC00202EBD8
:1056D000401203EB820292ED022AB0EE421A9FEDD5
:1056E000142AF4EEC21AF1EE10FA08D89FED102A2F
:1056F000B4EEC20AF1EE10FA01DD012200E0002250
:10570000114609B1B0EE601A00EBC00202EB401284
:10571000064B03EB820282ED010A00EBC00202EBB2
:10572000401203EB820282ED021A7047A4060120A8
:1057300000401C4500EBC00202EB4012524B03EB51
:105740008202D2ED062AB0EE620A00EBC00202EB42
:10575000401203EB8202D2ED082AB0EE621A00EB8F
:10576000C00202EB401203EB8202D2ED0A2AF0EEF5
:10577000620A00EBC00202EB401203EB8202D2EDA0
:10578000012AB0EE622A00EBC00202EB401203EBEA
:105790008202D2ED022AF0EE621ADFED3C2AB4EE6C
:1057A000E22AF1EE10FA08D8DFED382AB4EEE21A58
:1057B000F1EE10FA01DD012200E000221146E9B30A
:1057C000DFED322AB4EEE20AF1EE10FA08D8DFED8E
:1057D0002F2AF4EEE20AF1EE10FA01DD012200E0D8
:1057E0000022114619B1DFED2A2AF0EE621ADFED30
:1057F000272AB4EEE20AF1EE10FA08DDDFED232AE3
:10580000F4EEE20AF1EE10FA01D8012200E00022E3
:10581000114619B1DFED1F2AF0EE621ADFED1B2AE7
:10582000B4EEE20AF1EE10FA09DDDFED182AF4EE2B
:10583000E20AF1EE10FA02DD012201E012E000229C
:10584000114679B1DFED112AF4EEE21AF1EE10FA09
:1058500004DDDFED0F2AF0EE621A03E0DFED0D2A22
:10586000F0EE621A00EBC00202EB4012064B03EBB3
:10587000820282ED011A00EBC00202EB401203EB40
:105880008202C2ED021A7047A406012000401C45A6
:105890000000000000409C4500EBC00101EB4011FE
:1058A000214A02EB8101D1ED022AB0EE620A00EB3F
:1058B000C00101EB401102EB8101D1ED012AB0EEF4
:1058C000621A00EBC00101EB401102EB8101D1ED46
:1058D000062AF0EE621A00EBC00101EB401102EB68
:1058E0008101D1ED082AB0EE622AC0EE012A72EEE3
:1058F000822A71EEE22AF0EE620AF0EE002A80EED1
:10590000A23AF0EE430A9FED093AF0EE402A40EE4B
:10591000832AB0EE620A00EBC00101EB401102EBFA
:10592000810181ED020A7047A4060120000048426F
:1059300000BF00EBC00101EB4011084A02EB8101FE
:10594000D1ED050AB0EE600A00EBC00101EB401199
:1059500002EB810181ED030A70470000A4060120DB
:1059600000BF00EBC00101EB4011104A02EB8101C6
:10597000D1ED011AF0EE610A00BF00BF00BF00EBDD
:10598000C00101EB401102EB8101D1ED071AB0EE2D
:10599000611AC1EE201AB0EE610A00EBC00101EB02
:1059A000401102EB810181ED020A7047A40601203B
:1059B00000EBC00101EB4011724B03EB8101D1ED13
:1059C000065AB0EE650A00EBC00101EB401103EB93
:1059D0008101D1ED085AF0EE650A00EBC00101EB40
:1059E000401103EB8101D1ED0A5AB0EE651A00EBCC
:1059F000C00101EB401103EB8101D1ED0C5AF0EE37
:105A0000651A00EBC00101EB401103EB8101D1ED00
:105A10000E5AB0EE652A00EBC00101EB401103EB1A
:105A20008101D1ED105AF0EE652A00EBC00101EBC7
:105A3000401103EB8101D1ED125AB0EE653A00EB53
:105A4000C00101EB401103EB8101D1ED145AF0EEDE
:105A5000653A00EBC00101EB401103EB8101D1ED90
:105A6000165AB0EE654A00EBC00101EB401103EBA2
:105A70008101D1ED015AF0EE654A00EBC00101EB66
:105A8000401103EB8101D1ED025AB0EE655ADFED12
:105A90003E5AF4EEE54AF1EE10FA08D8DFED3A5A34
:105AA000B4EEE50AF1EE10FA01DD012100E000217B
:105AB0000A46EAB30021DFED345AF4EEE50AF1EECE
:105AC00010FA01DD41F00101DFED2F5AB4EEE51AC5
:105AD000F1EE10FA01DD41F00201DFED2B5AF4EE98
:105AE000E51AF1EE10FA01DD41F00401DFED265A6E
:105AF000B4EEE52AF1EE10FA01DD41F00801DFED28
:105B0000225AF4EEE52AF1EE10FA01DD41F010011F
:105B1000DFED1D5AB4EEE53AF1EE10FA01DD41F089
:105B20002001DFED195AF4EEE53AF1EE10FA00E04B
:105B300016E001DD41F04001DFED135AB4EEE54A15
:105B4000F1EE10FA01DD41F0800105EE901AF8EE59
:105B5000E55AB6EE006A75EE865AB0EE655A00BF99
:105B600000EBC00101EB4011064B03EB810181ED1D
:105B7000010A00EBC00101EB401103EB810181ED53
:105B8000025A7047A406012000401C4500EBC001EA
:105B900001EB4011354A02EB810191ED012AF0EE53
:105BA000420A00EBC00101EB401102EB810191EDD3
:105BB000022AF0EE421A00EBC00101EB401102EBA9
:105BC000810191ED032AB0EE420A9FED292AF4EEFD
:105BD000C20AF1EE10FA03DD9FED252AF0EE420A2B
:105BE0009FED242AF4EEC20AF1EE10FA03D29FEDE3
:105BF000212AF0EE420A9FED1E2A82EE201AB7EE0D
:105C0000002A30EE022AB0EE420AB4EEC10AF1EEEA
:105C100010FA19DB30EE412AB0EE420A9FED162A47
:105C2000F4EEC21AF1EE10FA01D8012200E00022CF
:105C3000114621B19FED112AF0EE421A03E09FEDCB
:105C4000102AF0EE421A00BF00EBC00101EB401138
:105C5000064A02EB8101C1ED021A00EBC00101EB23
:105C6000401102EB810181ED030A7047A406012077
:105C7000000048426F12833A00401C4500409C459A
:105C80000000000000BF00EBC00101EB4011114A11
:105C900002EB810191ED051AF0EE410A00BF00EB25
:105CA000C00101EB401102EB810191ED071AB0EE4A
:105CB000410A00EBC00101EB401102EB8101C1ED93
:105CC000030A00EBC00101EB401102EB810181ED01
:105CD000040A7047A406012010B5014601EBC1007B
:105CE00000EB41102B4A02EB8000D0ED061AB0EE1B
:105CF000610A01EBC10000EB411002EB8000D0ED26
:105D0000011AB0EE611A01EBC10000EB411002EB89
:105D10008000D0ED021AF0EE610ADFED1F1AB4EE3A
:105D2000E11AF1EE10FA08D8DFED1B1AB4EEE10A21
:105D3000F1EE10FA01DD012000E000200346B3B1CE
:105D4000FDEEE01A11EE900A401C0246C41700EB6B
:105D500014642412A0EB042001EE900AF8EEE11A7C
:105D6000B6EE002A71EE821AF0EE610A00BF01EB76
:105D7000C10000EB4110074A02EB800080ED010AF0
:105D800001EBC10000EB411002EB8000C0ED020A04
:105D900010BD0000A406012000401C4530B500EBFA
:105DA000C00101EB4011964A02EB8101D1ED066A78
:105DB000B0EE660A00EBC00101EB401102EB81017D
:105DC000D1ED086AF0EE660A00EBC00101EB40116C
:105DD00002EB8101D1ED0A6AF0EE661A00EBC00118
:105DE00001EB401102EB8101D1ED0C6AB0EE662AA5
:105DF00000EBC00101EB401102EB8101D1ED0E6A15
:105E0000F0EE662A00EBC00101EB401102EB8101CC
:105E1000D1ED106AB0EE663A00EBC00101EB401123
:105E200002EB8101D1ED126AF0EE663A00EBC0019F
:105E300001EB401102EB8101D1ED146AB0EE664A2C
:105E400000EBC00101EB401102EB8101D1ED166ABC
:105E5000F0EE664A00EBC00101EB401102EB81015C
:105E6000D1ED186AB0EE665A00EBC00101EB4011AB
:105E700002EB8101D1ED016AF0EE665A00EBC00140
:105E800001EB401102EB8101D1ED026AB0EE666ACE
:105E900000EBC00101EB401102EB8101D1ED036A7F
:105EA000B0EE661ADFED576AF4EEE65AF1EE10FA3C
:105EB00008D8DFED546AB4EEE60AF1EE10FA01DD1F
:105EC000012100E000210B46B3B1FDEEC16A16EEE0
:105ED000901A491C0A46CD1701EB15652D12A1EB4E
:105EE000052106EE901AF8EEE66AB6EE007A76EE36
:105EF000876AB0EE661A00BFDFED426AB4EEE66A6A
:105F0000F1EE10FA08D8DFED3F6AF4EEE60AF1EEA2
:105F100010FA01DD012100E000210C46F4B300215C
:105F2000DFED386AF4EEE61AF1EE10FA01DD41F029
:105F30000101DFED346AB4EEE62AF1EE10FA01DD7C
:105F400041F00201DFED2F6AF4EEE62AF1EE10FADD
:105F500001DD41F00401DFED2B6AB4EEE63AF1EE2B
:105F600010FA01DD41F00801DFED266AF4EEE63AB1
:105F7000F1EE10FA01DD41F01001DFED226AB4EE1E
:105F8000E64AF1EE10FA01DD41F02001DFED1D6A75
:105F9000F4EEE64AF1EE10FA03DD00E015E041F020
:105FA0004001DFED186AB4EEE65AF1EE10FA01DDB9
:105FB00041F0800106EE901AF8EEE66AB6EE007A3D
:105FC00076EE876AB0EE661A00BF00EBC00101EB07
:105FD00040110B4A02EB810181ED010A00EBC00187
:105FE00001EB401102EB8101C1ED020A00EBC0019F
:105FF00001EB401102EB810181ED031A30BD00007D
:10600000A406012000401C4500EBC00202EB401238
:10601000294B03EB8202D2ED061AB0EE610A00EBC7
:10602000C00202EB401203EB8202D2ED081AF0EE3E
:10603000610A00EBC00202EB401203EB8202D2EDD8
:10604000021AB0EE611ADFED1D1AB4EEE10AF1EEAC
:1060500010FA08D8DFED191AF4EEE10AF1EE10FAA1
:1060600001DD012200E00022114619B1DFED141A12
:10607000B0EE611ADFED111AB4EEE10AF1EE10FA9A
:1060800008DDDFED0E1AF4EEE10AF1EE10FA01D8A8
:10609000012200E00022114619B1DFED0A1AB0EE2C
:1060A000611A00EBC00202EB4012034B03EB8202C9
:1060B00082ED021A70470000A406012000401C4532
:1060C00000409C450000000000BF00EBC00101EB58
:1060D0004011084A02EB8101D1ED050AB0EE600AD9
:1060E00000EBC00101EB401102EB810181ED030ADD
:1060F00070470000A406012030B56FF07F41481EB4
:10610000B0F1807F00D31BE0481E4FF0E0225061C9
:1061100050170F22002807DA13071D0E094B00F055
:106120000F04241F1D5503E013071C0E064B1C54BF
:1061300000BF00204FF0E02290610720106100BFF7
:1061400030BD000018ED00E000E400E00349086005
:106150004FF0E0218969024A116070470001002078
:1061600004010020782070474FF0E0208069034947
:106170000968081A20F07F407047000008010020DD
:106180004FF0E0208069084A1268101A20F07F4121
:106190000648B1FBF0F0064A1268904201D3012094
:1061A00070470020FCE7000004010020C0D401007B
:1061B000000100204FF0E02080690149086070472D
:1061C0000801002000200849088008490880084983
:1061D000088008490880084908800849088008495B
:1061E0000880084908807047E8000020EA00002085
:1061F000EE000020F0000020F4000020F600002057
:10620000FA000020FC00002010B51048B0F9000092
:10621000002819DD0E480088FBF760F904B20D482C
:1062200000780D49098821440C4A5054601C04B27E
:106230000648B0F90000844200DB002421460448EF
:106240000088FBF7B7F900BF10BD0000E800002090
:10625000EA000020E5000020E6000020E80200201F
:1062600010B5034C2080034B1980034C228010BDD5
:10627000E6000020E8000020EA00002010B50849F0
:10628000084805F06EF850B1064804F0E7FF0649EB
:10629000087008460078FAF713FCFFF7B5FF10BD49
:1062A0000503050000380140E500002010B5044654
:1062B00024B1012C2DD0022C57D140E02E49088862
:1062C000FBF732F92D4908602B490988491C88B22F
:1062D000FBF756F92A49086027490988491D88B201
:1062E000FBF7FCF82749086023490988C91D88B2D3
:1062F000FBF706F92449086008460368214800882E
:1063000002B21F4801681D48007840B203F08FF9BF
:1063100030E019490888FBF707F918490860164961
:106320000988491C88B2FBF7EBF818490860084651
:1063300001681248007840B203F05AF91AE00E4999
:106340000888FBF7F1F80D4908600B490988491CDA
:1063500088B2FBF729F90A4908600846017807481E
:10636000007840B203F07CF904E0E1B25220FAF781
:10637000A7FC00BF00BF10BD34000020B400002007
:1063800090000020BC000020C0000020B8000020C9
:1063900000BFFEE70749084A127888540649097881
:1063A000491C054A117011460978142901D10021B0
:1063B00011707047D402002087000020002001499E
:1063C000087070478600002010B51E4800781E49EE
:1063D0000978884234D01D4A10681D4B1D4C248812
:1063E00018551C4A1288521E1A4B1A80000A184B64
:1063F000184C24881855174A1288521E154B1A80BB
:10640000000A134B134C24881855124A1288521E46
:10641000104B1A800022104B1A70104A094B1B783F
:10642000D15C8A00094B1A60064A1278521C054B4F
:106430001A701A461278142A01D100221A7000BF6D
:1064400010BD0000880000208700002030000020E0
:10645000E80200203A00002085000020D40200203D
:1064600000B500202349086023490880234908809B
:10647000234908802349088023490880234908804C
:10648000234908602349086023480088401E2349A7
:10649000088000202249087022490870224908809B
:1064A0002249088022490860224908602249087070
:1064B0002249087022490880224908802249086040
:1064C0002249086022490860224908602249086080
:1064D0002249086022490870224908602249087050
:1064E000FAF7C4FF002021490870214908702149AA
:1064F000087000BD3000002034000020360000206D
:10650000380000202000002022000020240000206D
:10651000280000202C000020E00000203A0000208D
:106520003C0000203D0000203E00002040000020F4
:1065300044000020480000204C0000204D000020B6
:106540004E00002050000020540000205800002081
:106550005C00002060000020640000206800002033
:10656000850000208000002084000020860000209C
:1065700087000020880000202DE9F04F85B004201E
:106580000849086008480068FAF7DAFB04900498A4
:1065900000F0FF0B0498040ABBF1EC0F81F03A8382
:1065A00004E0000080000020300000205FEA8B0043
:1065B0007844406887440000B4030000B60300003C
:1065C000D8030000DE0300000A0400006804000095
:1065D0005C040000EA030000FE0300005C160000FB
:1065E0005A06000090060000B0030000AC04000052
:1065F000DE04000042050000F6060000120700005D
:1066000024070000780B00008E0B0000AA0B00008E
:10661000D80B0000FC0B00005C1600007E0C000094
:10662000EC0C0000EC0D0000F20E0000E60F000084
:106630002C10000072100000B8100000FE100000C6
:1066400018110000EC1100000812000024120000D4
:106650005C160000441200005E120000841200006C
:10666000AA120000F6120000221300005C160000BF
:1066700050130000D0120000C6110000DA11000013
:106680003E160000761300008C130000A2130000D9
:10669000D0130000E2130000F413000008140000FF
:1066A000401400007C140000B41400003A150000EF
:1066B000F81400001E080000240800005C1600000A
:1066C0002A0800007A15000092150000AA150000A3
:1066D000C21500005C160000DC150000F415000077
:1066E0000C1600005C160000261600005C16000068
:1066F0005C1600005C1600005C160000300700000D
:10670000580700005C16000082070000EE0700003A
:10671000FC0700005C1600000E0800002C0A0000B8
:10672000360A0000400A00004A0A00005C16000019
:10673000560A0000620A00006E0A00005C160000A3
:106740007A0A0000860A0000900A00009A0A0000F7
:10675000A40A00005C160000B00A0000BC0A000099
:10676000C80A00005C160000D40A0000D00900002E
:10677000DA090000E4090000EE0900005C160000E0
:10678000FC090000080A0000120A00005C16000064
:10679000200A0000BC080000CC080000DC08000053
:1067A000EC0800005C160000FE0800001009000064
:1067B000220900005C1600003409000046090000B0
:1067C0005609000066090000760900005C1600000A
:1067D000880900009A090000AC0900005C1600005E
:1067E000BE0900003008000040080000500800000A
:1067F000600800005C1600007408000086080000B5
:10680000960800005C160000AA080000BA06000006
:10681000CC060000E4060000DE060000E40B0000E9
:106820005C160000F00B0000100C0000260C0000AD
:106830005C1600003E0C00004E0C00005E0C0000D8
:106840005C1600006E0C0000940C00005C1600004A
:10685000AC0C0000BC0C0000CC0C00005C1600006E
:10686000DC0C00001A0D00005C1600004E0D00004C
:10687000740D0000840D00005C160000940D0000F3
:106880001C0E00005C160000520E00007A0E000084
:106890008C0E00005C1600009E0E0000260F00000B
:1068A0005C160000600F00008C0F0000A20F0000BB
:1068B0005C160000D00F00002C0B0000360B00000F
:1068C000400B00004C0B00005A0B0000680B00004E
:1068D000060B00000C0B00005C160000120B000001
:1068E000E00A0000E20A0000E40A00005A05000085
:1068F0007205000088050000A0050000B805000032
:10690000141000005A100000A0100000E610000053
:10691000001100001A110000140B00001E0B0000F3
:106920005C1600002A0B0000200500002C0500006A
:10693000E60A0000A40D0000B00E000038050000BB
:10694000CE050000E6050000FE050000140600006C
:106950002C060000440600005C160000F60A000049
:10696000321100009811000001F05CB9FCE7F94811
:106970000088F9490880F9480068001DFAF7E0F935
:1069800001900198FAF70AF90820F5490860EBE749
:10699000F1490C80E8E7F14804600020F049086004
:1069A000E2E7ED4800882044EA490880084600886C
:1069B000EC490880D8E7E8480088001BE6490880D1
:1069C000D2E7E4480088E4490880E4480068061DEE
:1069D000E548E64A12888654E4480088401EE349A8
:1069E0000880360AE049E14A12888E54DF48008860
:1069F000401EDE490880360ADB480A461288865463
:106A000008460088401E0880D44804600020D4490D
:106A10000860A9E702F09CFD0120D549087000BF7D
:106A2000D2480088401CD1490880CF480988465C7C
:106A3000CE480088401CCD4908803602CA480988E3
:106A4000405C0644C9480088401CC849088036029A
:106A5000C5480988405C0644C04806600020C0491B
:106A6000086081E7C1480088401CC0490880BE48D2
:106A70000988405C0002B8490880BC480088401C76
:106A8000BA490880B8480988405CB3490988084475
:106A9000B149088068E7B0490888C11700EB116167
:106AA0000912A0EB0121B04AB04B1B88D154AF486A
:106AB0000088401EAD490880A7490888C11700EB2F
:106AC0001161C1F30721A94B1B88D154A748008845
:106AD000401EA649088047E70020A549087002F03B
:106AE00035FD41E70120A249087002F031FD3BE786
:106AF000A0480068A049086036E798480068001D73
:106B0000FAF71EF9C0B29B49086008209449086052
:106B10002AE792480068001DFAF712F980B29549F9
:106B2000086008208E4908601EE78C480068001D38
:106B3000FAF706F98F49086008208949086013E7C9
:106B400086480068001DFAF7FBF840B289490860E2
:106B500008208349086007E780480068001DFAF7AD
:106B6000EFF800B28349086008207D490860FBE621
:106B70007A480068001DFAF7E3F87E4908600820AB
:106B800077490860F0E675480068001DFAF7D8F804
:106B9000C0B279490860082071490860E4E66F488E
:106BA0000068001DFAF7CCF880B27349086008202D
:106BB0006B490860D8E669480068001DFAF7C0F81C
:106BC0006D490860082066490860CDE663480068A2
:106BD000001DFAF7B5F840B267490860082060491F
:106BE0000860C1E65D480068001DFAF7A9F800B228
:106BF0006149086008205A490860B5E657480068AE
:106C0000001DFAF79DF85C490860082054490860A7
:106C1000AAE65148008859490880524800885849D6
:106C200008804C48008857490880524800685649F7
:106C30000860514800685549086055480088A0F52B
:106C40007A70454908808FE64C48008842490880A0
:106C50004B480088434908804A4800883D490880DD
:106C6000494800684349086048480068424908604C
:106C70007AE639490988214488B2FAF761FC3B4930
:106C8000088071E634490988214488B23749098867
:106C9000FAF7AEFC68E63748046065E6A0B2FAF79A
:106CA0005FFC2E49086000202D4908605CE62B48F7
:106CB0000068001DFAF744F82749098808442D495F
:106CC00008600820264908604EE62A4800682A49DC
:106CD000096801FB04002749086045E6254800686B
:106CE0002044244908603FE62348006800F47F0000
:106CF00030B91D4820490968405C1E49086006E01B
:106D00001D49098888B2FAF715F81A4908602BE678
:106D10001948006800F47F0038B91749098888B21B
:106D2000FAF70EFC1349086006E01349098888B297
:106D3000FAF7ACFB0F49086016E60F48006800F44C
:106D40007F0038BB0C49098888B2FAF719FC094959
:106D5000086027E0380000203400002030000020C8
:106D60008000002036000020E80200203A000020C9
:106D7000850000205C000020600000202000002032
:106D80002200002024000020280000202C000020E9
:106D9000E0000020FFE7F849098888B2FAF787FB8E
:106DA000F6490860E0E5F5480178F548F24A1268CE
:106DB0008154D9E5F14A128891B2EF4A128890B213
:106DC000FAF716FCD0E5EC49098888B2EB49096866
:106DD000FAF718FCC8E5FAF795FDC5E5FAF780FD66
:106DE000C2E5FAF78DFDBFE5E4480078E54909887A
:106DF0002144E34A5054B7E5E0480078E149098866
:106E00002144DF4A5054AFE5DC480078DD49098869
:106E10002144DB4A5054A7E5D84A128891B2D94A96
:106E20001288224490B2FAF7E3FB9DE5D549098820
:106E3000214488B2D1490968FAF7E4FB94E5CF48C8
:106E40000078D04909882144CD4A50548CE5CD4979
:106E50000988214488B2C949098809B2FAF7AAFB0E
:106E600082E5C8490988214488B2C4490968FAF70B
:106E7000ADFB79E5C34800882044C149085CBF499F
:106E8000086071E5BF4800882044BD49085CBB49E3
:106E9000086069E5BB4800882044B949085CB749E7
:106EA000086061E5B7490988214488B2FAF748FBD0
:106EB000B249086058E5B3490988214488B2FAF715
:106EC0005FFBAE4908604FE5AE490988214488B2AE
:106ED000FAF72AFBA949086046E5AA49098821442E
:106EE00088B2FAF7FBFAA54908603DE5A54909888B
:106EF000214488B2FAF704FBA049086034E5A148B0
:106F0000008820449E49085C9B4908602CE59D4808
:106F1000008820449A49085C9749086024E599480C
:106F2000008820449649085C934908601CE595490F
:106F30000988214488B2FAF703FB8F49086013E5FA
:106F400090490988214488B2FAF71AFB8A490860F7
:106F50000AE58C490988214488B2FAF7E5FA86499E
:106F6000086001E587490988214488B2FAF7B6FA32
:106F700081490860F8E483490988214488B2FAF716
:106F8000BFFA7D490860EFE47C4800787C490855E9
:106F9000EAE47A4800787A490855E5E477480078C9
:106FA00077490855E0E4754A128891B2A0B2FAF721
:106FB0001FFBD9E4A0B271490968FAF723FBD3E4B7
:106FC0006E4800786E490855CEE4A0B26B49098836
:106FD00009B2FAF7EFFAC7E4A0B268490968FAF70C
:106FE000F5FAC1E46648005D64490860BCE46448A1
:106FF000005D62490860B7E46148005D5F49086070
:10700000B2E4A0B2FAF79CFA5C490860ACE4A0B222
:10701000FAF7B6FA59490860A6E4A0B2FAF784FA7A
:1070200056490860A0E4A0B2FAF758FA534908603C
:107030009AE4A0B2FAF764FA5049086094E4504820
:10704000005D4D4908608FE44D48005D4A49086085
:107050008AE44B48005D4849086085E4A0B2FAF72D
:107060006FFA454908607FE4A0B2FAF789FA42490D
:10707000086079E4A0B2FAF757FA3F49086073E470
:10708000A0B2FAF72BFA3C4908606DE4A0B2FAF717
:1070900037FA3949086067E466E465E464E4374830
:1070A0000068800235490860FAF72AFC5CE433483E
:1070B0000068801231490860FAF722FC54E4FAF7BC
:1070C00021FC51E4FAF70CFC4EE44DE42B48007827
:1070D0002A49086048E42948008880B227490860A6
:1070E00042E441E425480078244908603CE4234810
:1070F00000782249086037E42048008880B21F49A0
:10710000086031E41D4800781C490860FAF7FAFB72
:107110002AE41A48007819490860FAF7F3FB23E4D7
:107120001648008880B215490860FAF7D9FB1BE4BD
:107130001248006818B901201049086002E00020D8
:107140000E49086010E40D48006830B10A48006834
:1071500018B101200949086002E0002007490860D1
:1071600004E40648006810B90348006860B10120D3
:10717000024908600BE00000600000205C00002075
:10718000E8020020340000200020F949086007E4EC
:10719000F74800684042F64908600BE4F44800688C
:1071A0004042F349086005E4F14800684042F04974
:1071B000086005E4EE480068002804DAEC4800683E
:1071C0004042EB49086024E4E9480068E94909685D
:1071D0000844E749086008460078086019E4E44874
:1071E0000068E44909680844E149086008460088E5
:1071F00080B208600DE4DE480068DE490968084492
:10720000DB49086005E4DA480068DA49096808449F
:10721000D749086025E4D6480068D649096808447B
:10722000D34908601DE4D2480068D249096808447F
:10723000CF49086015E4CE480068CE490968401A75
:10724000CB4908600846007808600AE4C84800682E
:10725000C8490968401AC64908600846008880B2D3
:10726000086017E4C2480068C2490968401AC0496A
:1072700008600FE4BE480068BE490968401ABC496E
:10728000086007E4BA480068BA490968401AB84972
:10729000086020E4B6480068B6490968401AB44955
:1072A000086018E4B2480078B3490860B148007833
:1072B000B2490860B048006809684843AE490860B0
:1072C0000846007840B2AA4908600846007808607D
:1072D00007E4A748008880B2A7490860A54800884D
:1072E00080B2A6490860A448006809684843A249DA
:1072F00008600846008800B29D490860084600887A
:1073000080B2086004E49A4800689B490860994884
:1073100000689A4908609848006809684843964997
:107320000860084600689249086008E490480068D0
:107330009049096848438E4908600CE48C4800680D
:107340008C49096848438A49086004E48848006811
:107350008849096848438649086008E48448006809
:10736000C117874A03C283480068C117854A03C210
:10737000834806C88348D0E90030A1FB03CA02FB5A
:1073800003A201FB00207E49C1E900C003C9800AB5
:1073900040EA815089127A4A03C2794800687449E8
:1073A000086007E472480078734908607148007803
:1073B00072490860704800680968B0FBF1F06E49D6
:1073C00008600846007840B26949086008460078BD
:1073D000086006E46648008880B26749086065482E
:1073E000008880B265490860634800680968B0FB9E
:1073F000F1F0614908600846008800B25C49086005
:107400000846008880B208601DE4594800685A495F
:10741000086058480068594908605748006809687A
:10742000B0FBF1F054490860084600685049086014
:10743000F8E34F4800684F49096890FBF1F04C4968
:107440000860EFE34A4800684A49096890FBF1F098
:1074500047490860E6E3464800684649096890FBEA
:10746000F1F043490860DDE341480068C117444A30
:1074700003C240480068C117424A03C24048D0E9ED
:107480000010800240EA915089023D4AC2E9001092
:107490003C483B490CC803C9F8F766FE384A03C2AA
:1074A0003748006832490860BCE331480078324907
:1074B000086030480078314908602F480068096842
:1074C000B0FBF1F201FB12002B490860284800785C
:1074D000274908602848007840B20860A2E32448A1
:1074E000008880B2244908602248008880B223497D
:1074F0000860214800680968B0FBF1F201FB120046
:107500001D4908601A48008880B2194908601A4865
:10751000008800B2086085E31548006816490860D5
:107520001448006815490860134800680968B0FBF2
:10753000F1F201FB120010490860084600680C498E
:1075400008606FE30A4800680A49096890FBF1F295
:1075500001FB12000649086064E30548006805491C
:10756000096890FBF1F201FB12000149086059E340
:107570005C00002060000020640000206800002003
:107580007000002078000020F9480068F949096877
:1075900090FBF1F201FB1200F549086042E3F44868
:1075A0000068F5490860F3480068F4490860F2484B
:1075B00000680968884201D9012000E00020EE49F6
:1075C000086008460068EA4908602BE3E84800685C
:1075D000E8490968884201DD012000E00020E44913
:1075E00008601FE3E2480068E3490860E14800687A
:1075F000E2490860E04800680968884201D3012038
:1076000000E00020DC49086008460068D8490860AE
:1076100008E3D7480068D7490968884201DB0120A0
:1076200000E00020D2490860FCE2D1480068D2495D
:107630000860D0480068D1490860CF4800680968F0
:10764000884201D2012000E00020CB4908600846B2
:107650000068C7490860E5E2C5480068C54909688F
:10766000884201DA012000E00020C1490860D9E227
:10767000BF480068C0490860BE480068BF4908604C
:10768000BD4800680968884201D8012000E0002058
:10769000B949086008460068B5490860C2E2B448C4
:1076A0000068B4490968884201DC012000E000203C
:1076B000AF490860B6E200BFAD480068AD4909684F
:1076C000884201D1012000E00020A9490860A9E218
:1076D00000BFA7480068A7490968884201D0012077
:1076E00000E00020A24908609CE2A5480068001D57
:1076F000F9F726FB03900820A249086000200290B9
:107700009B48008880B29A4908604FF0000A13E055
:107710009749096801EB0A00F9F70CFB00909549BD
:1077200000980968884205D19248C0F800A001205D
:10773000029003E00AF1010AA245E9D300BF0298D2
:1077400028B98F490398086000208E49086069E2D3
:107750008748008880B286490860084600688549E5
:10776000096800EB81008249086008460068F9F763
:10777000E7FA8349086000208249086052E27C48A9
:107780000068012804D17E48046000207D4908601B
:1077900048E27748006820B97948046000207949B8
:1077A00008603FE272480068734908600846006854
:1077B00080F001000860084600686D49086031E209
:1077C0006B4800686C4908600846006880F0FF005C
:1077D0000860084600686649086023E2644800685B
:1077E00065490860084600684FF6FF7148406249E5
:1077F0000860084600685E49086013E25C4800685B
:107800005D49086008460068C04308600846006893
:107810005749086006E256480068574908605548CD
:107820000068564908605448006809680840524991
:107830000860084600684E490860F3E14C4800685B
:107840004D4908604B4800684C4908604A48006848
:1078500009680843484908600846006844490860C8
:10786000E0E14348006844490860424800684349F1
:10787000086041480068096848403F490860084678
:1078800000683B490860CDE1394800683A49086022
:107890003848006839490860374800680978C840A6
:1078A000354908600846006831490860BAE1304847
:1078B0000068314908602F480068304908602E4848
:1078C0000068097888402C490860084600780860FC
:1078D0000846006826490860A4E125480068264952
:1078E0000860244800682549086023480068097832
:1078F0008840214908600846008880B20860084630
:1079000000681B4908608DE1194800681A49086041
:1079100018480068194908601748006809788840C5
:107920001549086008460068114908607AE1104866
:10793000006820410E4908600846007800F0010008
:1079400008606FE10A48006820410949086008465C
:10795000007800F00100086064E1054800682041FB
:10796000034908600846007800F00100086059E10A
:107970005C000020600000206400002068000020FF
:107980003000002080000020AC4800682041AB4956
:10799000086008460078086044E1A8480068204173
:1079A000A64908600846007808603BE1A3480068E3
:1079B0002041A24908600846008880B2086031E191
:1079C0000120A040C5B285F0FF089C4800689C4992
:1079D00008609C48006828B90846006800EA08006A
:1079E000086004E096480068284395490860944878
:1079F00000689249086015E10120A04085B24FF669
:107A0000FF7085EA00088D4800688D4908608D4840
:107A1000006828B90846006800EA0800086004E029
:107A2000874800682843864908608548006883497C
:107A30000860F7E0012000FA04F56FEA05087F48C6
:107A400000687F4908607F48006828B908460068D8
:107A500000EA0800086004E0794800682843784993
:107A600008607748006875490860DBE0274675487C
:107A7000006875490860084600683C4600FA04F54D
:107A8000FF20A0404FF6FF7180EA01096B480068B3
:107A90006B4908600846006800EA0900086008466B
:107AA0000068284308600846006864490860B9E037
:107AB00027466448006864490860084600683C46F8
:107AC00000FA04F54FF6FF70A0406FEA00095B482A
:107AD00000685B4908600846006800EA0900086021
:107AE0000846006828430860084600685349086053
:107AF00098E02746534800685349086008460068E4
:107B00003C4600FA04F5FF20A0406FEA00094B480C
:107B100000684B4908600846006800EA09000860F0
:107B20000846006828430860084600684349086022
:107B300078E0424800784549454A128888544448CC
:107B40000088401C424908806CE03C4800783F496E
:107B50003F4A128888543E480088401C3C490880AF
:107B600060E0364801783948394A128881543848EB
:107B70000088401C3649088054E03048008881B2B3
:107B800033480088F9F734FD31480088801C3049BB
:107B9000088047E0294801682D480088F9F732FD40
:107BA0002B480088001D2A4908803BE023480078C4
:107BB0002649274A1288885425480088401C2449B1
:107BC00008802FE01D48008801B221480088F9F79D
:107BD000F1FC1F480088801C1D49088022E01748DE
:107BE00001681B480088F9F7F1FC19480088001D5E
:107BF0001749088016E01148006828B91548046044
:107C000000201549086004E00C480068401E0B493C
:107C1000086007E000201149087059465120F9F723
:107C20004FF800BF00BF0B4800680B4909680844C3
:107C30000849086005B0BDE8F08F00005C00002036
:107C4000640000206000002068000020E80200209E
:107C500036000020300000208000002000000020BE
:107C600070B5064600201D49086001F061FC04461D
:107C7000FDF718FC0546AA2001F0EBFCA91DC8B2CF
:107C800001F0E7FC002001F0E4FCFF2001F0E1FC42
:107C9000022001F0DEFC1E2001F0DBFC10490C6824
:107CA000E11704EB9151C1F3872001F0D2FCF9F701
:107CB00033F8C4B2204601F0CCFC01F03DFC044690
:107CC00001F0C7FC01F034FC044601F0A5FC00F013
:107CD00025FF00200349087070BD00000800002047
:107CE000E00000200000002010B50446FCB9134954
:107CF0000888F9F759FC1249086010490988491C9D
:107D000088B2F9F71DFC0F4908600C490988C91CA5
:107D100088B2F9F735FC0C4908600A4A128891B21A
:107D2000074A1078084A126802F078FC04E0E1B2D1
:107D30005220F8F7C5FF00BF00BF10BD340000207F
:107D40008C000020900000209400002070B50446B4
:107D500044BB18490888F9F727FC174908601549FA
:107D60000988491C88B2F9F71FFC144908601149B9
:107D70000988891C88B2F9F717FC114908600D4978
:107D80000988C91C88B2F9F70FFC0E4908600D4636
:107D90002B780B4D2A78094D2978074D287802F069
:107DA00064FC04E0E1B25220F8F78AFF00BF00BF94
:107DB00070BD0000340000208C00002090000020E6
:107DC000940000209800002002E008C8121F08C19B
:107DD000002AFAD170477047002001E001C1121F4C
:107DE000002AFBD17047816841F00801816000BF23
:107DF000816801F008010029FAD1816841F004018D
:107E0000816000BF816801F004010029FAD1704748
:107E100030B5012902D002291AD10CE0C36A23F43B
:107E20007003C362C36A541E4FF4700505EA04541C
:107E30002343C3620DE0836B23F440138363836B9E
:107E4000541E4FF4401505EA04542343836300E0B5
:107E500000BF00BF30BD21B1826842F40062826081
:107E600003E0826822F400628260704710B5044625
:107E70001348204430B1B0F5806F0CD0B0F5C05F2E
:107E80001BD111E040F2093000F048FD40F209300A
:107E900000F034FD12E040F20A3000F03FFD40F205
:107EA0000A3000F02BFD09E040F20F3000F036FD03
:107EB00040F20F3000F022FD00E000BF00BF10BD17
:107EC00000DCFEBF816801F0010119B9816841F051
:107ED00001018160704772B101F001031BB1836839
:107EE00043F48013836001F0020393B1836843F489
:107EF000004383600DE001F001031BB1836823F4AC
:107F00008013836001F002031BB1836823F40043F4
:107F100083607047012902D0022910D107E08368ED
:107F200023F46023836083681343836008E08368DD
:107F300023F4E043836083681343836000E000BF61
:107F400000BF70470549096821F47021034A116098
:107F50001146096801431160704700000424014084
:107F6000F0B51D4606290CD2436B01EB81071F2695
:107F7000BE40B34301EB810602FA06F63343436386
:107F800022E00C290ED2036B8E1F06EB86071F26FC
:107F9000BE40B3438E1F06EB860602FA06F6334355
:107FA000036311E010290FD2C36AA1F10C0606EB9E
:107FB00086071F26BE40B343A1F10C0606EB8606DA
:107FC00002FA06F63343C3620A2A0CD2046902EBB2
:107FD00042070726BE40B44302EB420605FA06F606
:107FE0003443046111E0122A0FD2C468A2F10A06D8
:107FF00006EB46070726BE40B443A2F10A0606EB8D
:10800000460605FA06F63443C460F0BDAAB101F491
:1080100080731BB1436843F48073436001F4806351
:108020001BB1436843F48063436001F00203CBB1AA
:10803000836843F00203836014E001F480731BB192
:10804000436823F48073436001F480631BB1436889
:1080500023F48063436001F002031BB1836823F0C3
:10806000020383607047002001E0411C08B2B0F5B4
:10807000FA7FFADB704700B50346012200BF00F02B
:108080000BF802465B1E012A01D1002BF7D1012A11
:1080900000D10422104600BD00200A49C96801F041
:1080A000010109B101200CE00649C96801F0100185
:1080B00009B1032005E00349C96801F0040101B1D9
:1080C000022070470020024000B50346012200BF95
:1080D00000F00CF802465B1E012A01D1002BF7D1FB
:1080E000012A00D10422104600BD000000200A49E8
:1080F000C96C01F0010109B101200CE00649C96C0D
:1081000001F0100109B1032005E00349C96C01F039
:10811000040101B1022070470020024070B50446FE
:108120000D4600262A480088B0F5007F35D9294839
:10813000844219D24FF47020FFF79DFF0646002EAF
:1081400043D12548006940F001002349086125809A
:108150004FF47020FFF78FFF06461F48006920F09C
:1081600001001D49086130E04FF47020FFF7ACFFBB
:10817000064656BB1848006D40F0010016490865D8
:1081800025804FF47020FFF79FFF06461248006DD0
:1081900020F001001049086517E04FF47020FFF748
:1081A0006AFF06468EB90C48006940F001000A4992
:1081B000086125804FF47020FFF75DFF06460648F2
:1081C000006920F0010004490861304670BD0000DC
:1081D000E0F7FF1FFFFF0708002002400848006982
:1081E00040F080000649086106480088B0F5007F2D
:1081F00004D90846006D40F0800008657047000013
:1082000000200240E0F7FF1F30B5054636480088E1
:10821000B0F5007F48D9354885421ED24FF4702012
:10822000FFF729FF0446002C5BD13148006940F07C
:1082300002002F49086108464561006940F040008E
:1082400008614FF47020FFF716FF044628480069C4
:1082500020F002002649086143E04FF47020FFF748
:1082600033FF0446002C3CD12148006D40F0020051
:108270001F49086508464565C06900F0020008B15D
:10828000084645611A48006D40F0400018490865ED
:108290004FF47020FFF718FF04461548006D20F0DA
:1082A0000200134908651CE04FF47020FFF7E3FE5D
:1082B0000446B4B90E48006940F002000C49086158
:1082C00008464561006940F0400008614FF47020A5
:1082D000FFF7D1FE04460648006920F00200044979
:1082E0000861204630BD0000E0F7FF1FFFFF0708D0
:1082F000002002400C48006900F0800020B10B48CB
:10830000094948600A4848600A480088B0F5007F7B
:1083100009D90548006D00F0800020B103480249EA
:1083200048640348486470470020024023016745C1
:10833000AB89EFCDE0F7FF1F70B504460D46002670
:108340002A480088B0F5007F35D92948844219D2DF
:108350004FF47020FFF78FFE0646002E43D12548CC
:10836000006940F001002349086125604FF4702046
:10837000FFF781FE06461F48006920F001001D49F5
:10838000086130E04FF47020FFF79EFE064656BBB2
:108390001848006D40F001001649086525604FF44B
:1083A0007020FFF791FE06461248006D20F0010094
:1083B0001049086517E04FF47020FFF75CFE064691
:1083C0008EB90C48006940F001000A490861256037
:1083D0004FF47020FFF74FFE06460648006920F074
:1083E000010004490861304670BD0000E0F7FF1F3E
:1083F000FFFF070800200240F0B50446164600259E
:10840000002201F00F0501F0100747B1042E05D13D
:1084100045F00305E76B1F43E76300E035430020A9
:108420001EE0012787401F40C7B122684FEA800C39
:108430000F2707FA0CF7BA43870005FA07F73A4304
:10844000282904D1012787401F40676105E048299A
:1084500003D1012787401F4027612260471CB8B223
:108460000828DED3082022E0012787401F40E7B11B
:108470006268A0F108074FEA870C0F2707FA0CF78C
:10848000BA43A0F10807BF0005FA07F73A432829C5
:1084900004D1012787401F40676105E0482903D1C7
:1084A000012787401F4027616260471CB8B210282F
:1084B000DAD3F0BD02469068084008B10120704749
:1084C0000020FCE7F0B50A46002300240021002527
:1084D00000F00046B6F1004F02D11D4EF16901E0F7
:1084E0001B4E7168C0F3034583B200F44016B6F525
:1084F000401F08D121F0E061154E766826F0E06655
:10850000134F7E6012E000F48016B6F5801F06D18E
:10851000032606FA05F4A14341F0E06106E0460DAA
:10852000360103FA06F6B14341F0E06122B1460D8F
:10853000360103FA06F6314300F00046B6F1004F6B
:1085400002D1034EF16101E0014E7160F0BD000007
:108550000000014010B53348007800285FD0FEF7D6
:108560000BF8FEF709F8FEF707F8FEF705F8FEF737
:1085700003F8FEF701F8FDF7FFFFFDF7FDFFFDF73C
:10858000FBFFFDF7F9FFFDF7F7FFFDF7F5FFFDF73F
:10859000F3FFFDF7F1FFFDF7EFFFFDF7EDFFFDF74F
:1085A000EBFFFDF7E9FFFDF7E7FFFDF7E5FFFDF75F
:1085B000E3FFFDF7E1FFFDF7DFFFFDF7DDFFFDF76F
:1085C000DBFFFDF7D9FFFDF7D7FFFDF7D5FFFDF77F
:1085D000D3FF1548007810B3FDF7D2FDF8B10020A5
:1085E000F8F7E2FF044604B90A242046FDF7AEFD81
:1085F0000E48007800B910BD0D480068401C0C49B9
:10860000086008460068642801D300200860FDF770
:10861000D5FE1120FDF7BEFEFDF7D6FE00BF00BF60
:10862000E9E7000000000020840000208500002011
:108630000400002002F069FA01E0FFF78BFFFCE77D
:108640002DE9F04103460D46164600240027A046BA
:108650002A48006800F4E060B0F5E06F03D100BF85
:108660004FF0040830E02548006800F4E060B0F501
:10867000C06F03D101274FF0030825E01F480068B1
:1086800000F4E060B0F5A06F02D10227B8461BE00D
:108690001A48006800F4E060B0F5806F03D103274A
:1086A0004FF0010810E01548006800F4E060B0F5F4
:1086B000407F03D104274FF0000805E04FF4A0608D
:1086C00000F020F80227B846C7F1040005FA00F4CC
:1086D000C8F104010F20C840304004432401084879
:1086E000C45403F01F01012088405911890001F191
:1086F000E021C1F80001BDE8F08100000CED00E0D0
:1087000000E400E002490143024A116070470000A2
:108710000000FA050CED00E0184B5968184B1940A1
:10872000164BDA6A22F000520C2820D2DFE800F063
:10873000060708091F0C1F0D1516171800BF00BFEC
:1087400000BF41EA803113E000BF20F004004FF089
:10875000805343EA803319430AE000BF00BF00BFE3
:1087600020F00C0041EA803142F0005200E000BFEE
:1087700000BF024B5960DA627047000000100240EF
:10878000FF3FFFEF2DE9F04F8CB0074600200A9025
:108790004AA090E8004CC068CDE905BECDF810A015
:1087A00007900FF21C1ADAE9000ACDE9020A0FF26B
:1087B000101ADAE9000ACDE9000A44484068C0F31B
:1087C00081000B900B9820B1012804D002283FD1E2
:1087D00003E03F4A3EE03E4A3CE03C48406800F44B
:1087E000803CBCF5803F12D13848C06A00F0804818
:1087F000B8F1000F01D1364C00E0364C33484068E8
:1088000000F40039B9F5003F02D1334C00E0324C9E
:108810002E484068C0F383412C48406800F0006057
:1088200008B141F010012948406800F0804008B1CB
:1088300041F020010F2901D2891C06E00F2903D342
:108840003E2901D8491C00E03F2104FB01F201E070
:108850001F4A00BF00BF1D484068C0F3031504A8AD
:10886000465D22FA06F319484068C0F3022502A8C3
:10887000465D23FA06F0099014484068C0F3C2250B
:108880001DF8056023FA06F0089037B1012F06D0D5
:10889000022F06D0032F0AD106E00A9208E00A93BD
:1088A00006E009980A9003E008980A9000E000BFEB
:1088B00000BF0A980CB0BDE8F08F00000000000077
:1088C000000000000102030406070809001002402E
:1088D00000127A00006CDC0200093D00064A02EB3F
:1088E0009011096800F01F0301229A401143024BC6
:1088F00003EB90121160704700100240064A02EB31
:108900009011096800F01F0301229A409143024B25
:1089100003EB90121160704700100240064A02EB10
:108920009011096800F01F0301229A401143024B85
:1089300003EB901211607047001002402DE9F041E6
:108940002DED028B292638480068052800DA052617
:10895000002527E0002422E005EBC50000EB4510D0
:108960003249098801EB800000EB8407B8B2F8F7C0
:10897000C7FD08EE100AB0EE480AB8EEC00ADFEDF7
:108980002C0A80EE201A05EBC50000EB45102949A2
:1089900001EB800000EB840080ED001A641CB442FF
:1089A000DADB6D1C244800888542D3DBF8F7B8FF7A
:1089B000002527E0002422E005EBC50000EB451070
:1089C0001C4901EB800000EB840090ED000AB0EE42
:1089D000408A05EBC50000EB45101449098801EBFE
:1089E000800000EB84079FED120A28EE000ABDEE1E
:1089F000C00A10EE101AB8B2F8F7E8FD641C292C72
:108A0000DADB6D1C0C4800888542D3DB0648006821
:108A1000002804DD04480068401E03490860BDECDE
:108A2000028BBDE8F0810000C4010020BC010020E1
:108A300000008044A4060120C80100207047000007
:108A40002DE9F04106460F4690461D46002012498A
:108A500008601248A0F8008011480660B8B21149B9
:108A60000860ADB2002407E00E4909680819F8F75C
:108A700061F90D490855641CB4F5806FF4DB0024DE
:108A800005E02819F8F756F908490855641CFF2C29
:108A9000F7DDBDE8F0810000C4010020C80100201E
:108AA000BC010020C0010020AC260120AC2A01201E
:108AB0001FB5002211463620FFF7C2FD40F20470B8
:108AC000FFF70CFF104802F037FA0020ADF8000065
:108AD000ADF80200ADF804004FF49660029000205B
:108AE000ADF806008DF80C006946074802F0F0FA70
:108AF000054802F0AFF80121034802F035FB0248B7
:108B000002F0DCFA1FBD00000010004010B5024862
:108B100002F0D9FA10BD00000010004010B5024864
:108B200002F0CCFA10BD00000010004010B5012189
:108B30000B480078F8F776FA01210A480078F8F730
:108B400071FA012106480078F8F7A8FB01210548D1
:108B50000078F8F7A3FB00F027F800F00FF810BD3D
:108B60001001002011010020024A1070024A117009
:108B700070470000100100201101002010B50021F5
:108B800007480078F8F78AFB012106480078F8F7D3
:108B900085FB012102480078F8F780FB10BD00003A
:108BA000110100201001002010B5012109480078B2
:108BB000F8F774FB012108480078F8F76FFB0021F3
:108BC00004480078F8F76AFB002103480078F8F7BA
:108BD00065FB10BD110100201001002010B500211F
:108BE0000D480078F8F71EFA01210C480078F8F7D4
:108BF00055FB00BF08480078F8F732FA0128F9D091
:108C0000002106480078F8F749FB01210248007866
:108C1000F8F708FA10BD0000110100201001002033
:108C200070B50446002513E004F080010B4800787D
:108C3000F8F734FB6006040E012109480078F8F7C4
:108C40002DFB002106480078F8F728FB681CC5B208
:108C5000082DE9DBFFF7C2FF70BD00001101002005
:108C60001001002010B5012151480078F8F7DAF919
:108C7000012150480078F8F7D5F901214E480078D5
:108C8000F8F7D0F901214D480078F8F7CBF9012128
:108C900047480078F8F702FB002146480078F8F7CB
:108CA000FDFA002145480078F8F7F8FA0A20FCF7A9
:108CB000D6FA43480078002853D1AE2000F09AF845
:108CC000002000F097F8102000F094F8402000F009
:108CD00091F8812000F08EF8CF2000F08BF8A120D1
:108CE00000F088F8C82000F085F8A62000F082F88F
:108CF000A82000F07FF83F2000F07CF8D32000F09F
:108D000079F8002000F076F8D52000F073F8802084
:108D100000F070F8D92000F06DF8F12000F06AF84A
:108D2000DA2000F067F8122000F064F8DB2000F091
:108D300061F8402000F05EF8202000F05BF802208F
:108D400000F058F88D2000F055F8142000F052F88B
:108D5000A42000F04FF8A62000F04CF8AF2000F05F
:108D600049F817480078012820D1AF2000F042F8D8
:108D7000402000F03FF8A02000F03CF8A62000F0D2
:108D800039F8A42000F036F8A22000F033F8C8200B
:108D900000F030F82F2000F02DF8252000F02AF800
:108DA000812000F027F8252000F024F810BD0000F5
:108DB00013010020140100201501002016010020DD
:108DC0001201002030B5039C054D2870054D297017
:108DD000054D2A70054D2B70054D2C7030BD0000DF
:108DE00012010020130100201401002015010020B1
:108DF0001601002070B50446002112480078F8F7EB
:108E00004DFA00251BE004F0800028B900210E482F
:108E10000078F8F743FA04E001210B480078F8F7EE
:108E20003DFA002109480078F8F738FA6006040E88
:108E3000012106480078F8F731FA681CC5B2082D00
:108E4000E1DB70BD16010020140100201301002099
:108E500070B50446012112480078F8F71FFA002582
:108E60001BE004F0800028B900210E480078F8F7D4
:108E700015FA04E001210B480078F8F70FFA0021F9
:108E800009480078F8F70AFA6006040E012106483E
:108E90000078F8F703FA681CC5B2082DE1DB70BD55
:108EA00016010020140100201301002010B5FFF767
:108EB0003DFE00F05DF8AE2000F05BF8002000F011
:108EC00058F8102000F055F8402000F052F88120AA
:108ED00000F04FF8CF2000F04CF8A12000F049F846
:108EE000C82000F046F8A62000F043F8A82000F0C3
:108EF00040F83F2000F03DF8D32000F03AF8002081
:108F000000F037F8D52000F034F8802000F031F878
:108F1000D92000F02EF8F12000F02BF8DA2000F034
:108F200028F8122000F025F8DB2000F022F840207D
:108F300000F01FF8202000F01CF8022000F019F8C3
:108F40008D2000F016F8142000F013F8A42000F093
:108F500010F8A62000F00DF8AF2000F00AF810BDC0
:108F600070B504460D4629462046FFF7FDFD70BD4D
:108F7000704710B50446FFF717FE7820FFF750FE44
:108F80000020FFF74DFE2046FFF74AFEFFF7F6FDF3
:108F900010BD10B50446FFF707FE7820FFF740FE2E
:108FA0004020FFF73DFE2046FFF73AFEFFF7E6FDC3
:108FB00010BD000070B505460C4662486249086065
:108FC000624863490860634805606348046000F0D4
:108FD000BDF9362000F024F9002000F013F93A2002
:108FE00000F01EF9052000F00DF9B22000F018F98C
:108FF0000C2000F007F90C2000F004F9002000F02C
:1090000001F9332000F0FEF8332000F0FBF8B72020
:1090100000F006F9352000F0F5F8BB2000F000F96B
:10902000192000F0EFF8C02000F0FAF82C2000F032
:10903000E9F8C22000F0F4F8012000F0E3F8C320C2
:1090400000F0EEF8122000F0DDF8C42000F0E8F89F
:10905000202000F0D7F8C62000F0E2F80F2000F042
:10906000D1F8D02000F0DCF8A42000F0CBF8A1204B
:1090700000F0C8F8E02000F0D3F8D02000F0C2F8EB
:10908000042000F0BFF80D2000F0BCF8112000F023
:10909000B9F8132000F0B6F82B2000F0B3F83F2009
:1090A00000F0B0F8542000F0ADF84C2000F0AAF821
:1090B000182000F0A7F80D2000F0A4F80B2000F015
:1090C000A1F81F2000F09EF8232000F09BF8E1207B
:1090D00000F0A6F8D02000F095F8042000F092F8F7
:1090E0000C2000F08FF8112000F08CF8132000F015
:1090F00089F82C2000F086F83F2000F083F8442007
:1091000000F080F8512000F07DF82F2000F07AF870
:109110001F2000F077F81F2000F074F8202000F0E6
:1091200071F8232000F06EF8212000F079F811206A
:1091300000F076F80A20FCF792F8292000F070F889
:1091400070BD0000D1920008A80100207D920008A7
:10915000AC010020180100201C0100202DE9F04185
:1091600007460C4615461E462A2000F059F8384698
:1091700000F038F8284600F035F82B2000F050F8C1
:10918000204600F02FF8304600F02CF82C2000F09C
:1091900047F8BDE8F081000070B506460F4800882A
:1091A000401E83B20E480088401E82B2002108464D
:1091B000FFF7D4FF00240CE0002504E0304600F067
:1091C00011F8681C85B2054800688542F6DB601C12
:1091D00084B2034800688442EEDB70BD1C010020AD
:1091E0001801002010B50446012105480078F8F761
:1091F00055F8200A00F022F8E0B200F01FF810BD88
:109200002B01002010B50446012104480078F8F72E
:1092100045F8204600F012F810BD00002B01002098
:1092200010B50446002104480078F8F737F82046C6
:1092300000F004F810BD00002B01002070B50446BA
:10924000002513E000210B480078F8F727F804F018
:10925000800109480078F8F721F8012105480078D5
:10926000F8F71CF86006040E681CC5B2082DE9DB8F
:1092700070BD0000290100202801002070B50446BF
:109280000D460F48007800B170BD002C03DB0D487F
:109290000068844200DBF7E7002D03DB0A48006822
:1092A000854200DBF0E7ABB2A2B2A9B2A0B2FFF7F1
:1092B00055FF06480088FFF795FF00BFE4E7000070
:1092C00024010020180100201C010020260100209C
:1092D00070B504460D460F48007800B170BD002CF3
:1092E00003DB0D480068844200DBF7E7002D03DB59
:1092F0000A480068854200DBF0E7ABB2A2B2A9B22F
:10930000A0B2FFF72BFF06480088FFF76BFF00BFF6
:10931000E4E7000020010020180100201C010020CB
:1093200022010020024A1170024A1080704700009A
:109330002401002026010020024A1170024A1080F8
:10934000704700002001002022010020704700002B
:1093500010B5044C2070044C2170044C2270044C55
:10936000237010BD28010020290100202A010020BF
:109370002B01002010B5F8F7EBF90A20FBF76FFF7F
:10938000302000F037F80A20FBF769FF302000F0AA
:1093900031F80A20FBF763FF0C2000F02BF80A20BD
:1093A000FBF75DFF012000F025F80A20FBF757FFCF
:1093B000062000F01FF86420FBF751FF342000F076
:1093C00019F80A20FBF74BFF362000F013F80A20AB
:1093D000FBF745FF10BD0000034B1870034B1970DD
:1093E000034B1A70704700002C0100202D01002053
:1093F0002E01002070B50546012124480078F7F7BA
:109400004DFFFEF730FE00240FE0012120480078D8
:10941000F7F744FFFEF727FE00211D480078F7F715
:109420003DFFFEF720FE601CC4B2052CEDDB0021E1
:1094300016480078F7F732FFFEF715FE01211448B1
:109440000078F7F72BFFFEF70EFE0021104800789A
:10945000F7F724FFFEF707FE00210C480078F7F726
:109460001DFFFEF700FE012109480078F7F716FFFF
:10947000FEF7F9FD002106480078F7F70FFFFEF729
:10948000F2FD2846FBF7D2FD70BD00002D01002043
:109490002E01002070B50546012123480078F7F71A
:1094A000FDFE00240FE0012120480078F7F7F6FECA
:1094B000FEF7D9FD00211D480078F7F7EFFEFEF713
:1094C000D2FD601CC4B2052CEDDB002116480078EB
:1094D000F7F7E4FEFEF7C7FD012114480078F7F71F
:1094E000DDFEFEF7C0FD002110480078F7F7D6FE3C
:1094F000FEF7B9FD01210C480078F7F7CFFEFEF723
:10950000B2FD012109480078F7F7C8FEFEF7ABFD70
:10951000002106480078F7F7C1FEFEF7A4FD2846B3
:10952000FBF784FD70BD00002D0100202E010020FE
:1095300000487047EAB30008412070474FF480307C
:109540000149086070470000E000002072B67047D3
:1095500062B6704710B50446002211462520FFF779
:109560006FF840F20260FFF7B9F940F20E60FFF7C2
:10957000B5F94FF40073032218211B48FEF73CFF96
:109580004FF48063032204211748FEF735FF174884
:1095900001F06EFE2146154801F018FE0021134827
:1095A00001F01BFF0021114801F007FF00210F48C7
:1095B00001F0F3FE00210D4801F0BEFE00210B4832
:1095C00001F0B2FE0421094801F0EFFE082107482E
:1095D00001F0FBFE054801F093FE40F2053103481F
:1095E00001F0B2FE10BD000000080140003801404B
:1095F00070B504460D461CB92946024801F0E6FD47
:1096000070BD00000038014010B50446FCF7DAFDDB
:109610002046FFF79FFF10BD10B5044603E014F885
:10962000010B00F016F820780028F8D110BD2DE9C4
:10963000F04107460C4615461E4647B932462946B4
:109640002046FCF70DFE4FF4E130FFF783FFBDE845
:10965000F08110B504462146002000F001F810BD4D
:1096600070B504460D4654B92946054801F0FBFD86
:1096700000BF0721024801F048FE0028F9D070BD64
:109680000038014004480068401C0349086008464F
:109690000068401C086070470C01002030B505468A
:1096A0000B460024A0E02846F7F71AFE03F400005A
:1096B000002841D14E480068401C4D4908602846AA
:1096C000F7F702FE4A480068401C4949086008460E
:1096D0000068401C086008460068401C0860084696
:1096E0000068401C086008460068401C0860084686
:1096F0000068401C086008460068401C0860084676
:109700000068401C086008460068401C0860084665
:109710000068401C086008460068401C0860084655
:109720000068401C086008460068401C0860084645
:109730000068401C086054E02D480068401C2C491B
:10974000086008460068401C086008460068401C25
:10975000086008460068401C086008460068401C15
:10976000086008460068401C086008460068401C05
:10977000086008460068401C086008460068401CF5
:10978000086008460068401C086008460068401CE5
:10979000086008460068401C086008460068401CD5
:1097A000086008460068401C086008460068401CC5
:1097B000086008460068401C08602846F7F784FDEA
:1097C0000B480068401C0A49086008460068401CB5
:1097D000086008460068401C086008460068401C95
:1097E00008605B00601C44B2182CFFF65CAF30BD13
:1097F0000C0100200146002006E0064A12680244DF
:10980000054B9954421C10B2044AB2F90020904210
:10981000F3DB704780010020E8020020880100206F
:109820000149086070470000A0010020014908605C
:10983000704700009C01002001490860704700004B
:1098400098010020034B1870034B1970034B1A70DA
:10985000704700009601002094010020950100202F
:1098600070B5049C084D2880084D2960084D2A6079
:10987000084D2B60084D2C60084D094E3560094D90
:10988000094E356070BD0000880100208001002075
:109890008C010020900100208401002059990008CB
:1098A000A8010020AD980008AC01002030B50446A6
:1098B0000D460A480068002800DA30BD07480068F5
:1098C00018B900200649087002E001200449087018
:1098D0002946204600F08EF800BFEEE7A0010020E8
:1098E000A4010020F0B50246002A09DB15480068F3
:1098F000824205DA002903DB13480068814201DB5C
:109900000120F0BD48B2C71700EB5777FF10A0EB5E
:10991000C7048BB21846DF1703EB5777FD100B48CF
:10992000006805FB002085B2094800682844094FFB
:109930003E5C264106F0010008B10120E1E700206D
:10994000DFE700008C01002090010020840100204E
:1099500080010020E802002030B504460D460A4888
:109960000068002800DA30BD0748006818B90020F8
:109970000649087002E00120044908702946204683
:1099800000F038F800BFEEE79C010020A4010020A1
:10999000F0B505464CB2E71704EB5777FF10A4EB80
:1099A000C70688B20446C71700EB5777FA100D4C6C
:1099B000246802FB0454A2B20B4C246814440B4FDD
:1099C0003B5D0B4C247824B10124B4401C43E3B22A
:1099D00002E00124B440A343034C24681444034F21
:1099E0003B55F0BD8401002080010020E8020020EA
:1099F000A40100202DE9F04305460C46002D09DBAB
:109A000029480068854205DA002C03DB27480068F6
:109A1000844201DBBDE8F0832548007818B1224874
:109A20000068401E451B2348007818B11F48006895
:109A3000401E041B2048007818B1284625460446DD
:109A400000BF1E480068012803D121462846FFF7C1
:109A50009FFF1A480068012800DADBE71749086809
:109A600000EBD071A5EB61061449086800EBD071DA
:109A7000A4EB6104002711E0B0464FF0000907E0B5
:109A800021464046FFF784FF08F1010809F101096A
:109A90000A4800688145F3D3641C7F1C07480068AE
:109AA0008742E9D300BFB5E78C0100209001002078
:109AB00094010020950100209601002098010020CB
:109AC00030B50246154B164C94F900401A55154B0B
:109AD000134C94F9004019550024134B104D95F97F
:109AE000005043F825400123104C0D4D95F90050CE
:109AF000635501240E4B0A4D95F900505C55012326
:109B00000C4C074D95F900506355054B93F9000037
:109B10001B785B1C5BB2024C237030BD88050120B2
:109B20007E010020920501209C050120C405012032
:109B3000CE050120D80501200146024850F8210039
:109B4000704700009C050120002001490870704703
:109B50007E01002070B500243EE02349085DF7F740
:109B60007FFA05462148005D50B94DB92049085D8E
:109B7000F7F776FA1F49085501201C49085570BDB2
:109B80001A48005D30B3012D24D11949085DF7F75B
:109B900067FA194908551748005D012809D1084698
:109BA000005D30B9154850F82400401C134941F8B5
:109BB00024001048005D50B90F48005D012806D10F
:109BC0000E4850F82400401E0C4941F824000020A3
:109BD00006490855601CC4B2094890F90000844247
:109BE000BBDB00BFCBE7000088050120C4050120D6
:109BF00092050120CE050120D80501209C050120F9
:109C00007E01002070B505460024FFF79FFC00216F
:109C10002846F7F743FB1220FBF721FB01212846DA
:109C2000F7F73CFB0320FBF705FB00212846F7F77D
:109C3000F9F900BF2846F7F713FA0128FAD000BF58
:109C40002846F7F70DFA0028FAD000BF2846F7F7A4
:109C500007FA0128FAD0284600F01CF8044624022E
:109C6000284600F017F804442402284600F012F8B1
:109C700004442402284600F00DF80444284600F06D
:109C800009F80646FFF764FC01212846F7F7CAF9F0
:109C9000204670BD70B506460024002519E0600618
:109CA000040E00BF3046F7F7DBF90028FAD0052094
:109CB000FBF7C0FA3046F7F7D3F9012807D144F093
:109CC000010400BF3046F7F7CBF90128FAD0681C31
:109CD000C5B2082DE3DB204670BD70B506460024F2
:109CE000FFF734FC002526E000213046F7F7D6FACE
:109CF000FFF7C8FCFFF7C6FC01213046F7F7CEFAA4
:109D000000213046F7F78EF964100120FBF792FA34
:109D10003046F7F7A5F9012801D144F08004052069
:109D2000FBF788FA01213046F7F77CF90120FBF7B1
:109D300081FA681C45B2082DD6DBFFF709FC2046E6
:109D400070BD10B50446FFF701FC00212046F7F76F
:109D5000A5FA1820FBF76EFA1820FBF76BFA18200B
:109D6000FBF768FA01212046F7F798FA0420FBF781
:109D700061FA00212046F7F755F91920FBF75AFA46
:109D800001212046F7F74EF9FFF7E2FB10BD70B551
:109D900006460C46FFF7DAFB002524E0002130469A
:109DA000F7F77CFAFFF76EFCFFF76CFC04F001019B
:109DB0003046F7F773FA64100920FBF73BFA0121EC
:109DC0003046F7F76BFAFFF75DFCFFF75BFCFFF738
:109DD00059FCFFF757FCFFF755FCFFF753FCFFF763
:109DE00051FC681C45B2082DD8DBFFF7B1FB70BDF4
:109DF0002DE9FF4F87B007460C4604F47F0008B1F9
:109E0000012000E000208046A4B200200690B8F1B6
:109E1000000F08D0201DF6F78DFF0546C01705EB93
:109E20005070C61006E0574A211D505CC11700EB68
:109E30005171CE104FF00009099800B20590B8F1A9
:109E4000000F04D0A01CF6F775FF824603E04D49D1
:109E5000A01C11F800A0002004908CE0DDF8109008
:109E60000A980FFA80FB0020039079E0B8F1000F08
:109E700007D004F1090101EB0900F6F75BFF054685
:109E800004E004F1090048443E490D5CE7B90020B4
:109E9000019016E005F0010028B159463A4A0598AC
:109EA0001268904704E05946384A0598126890476E
:109EB0006D100BF101000FFA80FB0198401CC0B23D
:109EC000019001980828E5DB012F16D100200190B0
:109ED00010E005F0010020B159462C4A059812689F
:109EE00090476D100BF101000FFA80FB0198401CA8
:109EF000C0B2019001980828EBDB022F1CD1002092
:109F0000019016E005F0010050B159460598F6F7AA
:109F1000CFFD28B10120069006980BB0BDE8F08F68
:109F20006D100BF101000FFA80FB0198401CC0B2CC
:109F3000019001980828E5DBB8F1000F04D0A01CBF
:109F4000F6F7F8FE029003E00E49A01C085C0290B0
:109F5000029848441FFA80F90398401C80B203908D
:109F60000398B04282DB0598401C00B2059004982B
:109F7000401CC0B2049004985045FFF66FAF06989D
:109F8000CBE70000E8020020A8010020AC0100207F
:109F90002DE9FF4F83B00D461F46ADB2A81CF6F762
:109FA000C9FE8046E81CF6F7C5FE08EB002080B22B
:109FB0000290281DF6F7BEFE04462646E11704EB84
:109FC0005171C910A4EBC10139B934B12046E11770
:109FD00004EB5171C1F3C70406E02046E11704EB1E
:109FE0005171C910491CCCB24FF0000845E00598EA
:109FF00040441FFA80FADDF840904FF0000B34E047
:10A0000005F1090101EB0A00F6F794FE019000202A
:10A0100000901EE0019800F0010028B14946384642
:10A02000194A1268904704E049463846174A1268B0
:10A03000904701984010019009F101000FFA80F952
:10A0400010983044484500DC06E00098401CC0B23F
:10A05000009000980828DDDB00BF029850441FFAEA
:10A0600080FA0BF1010000F0FF0BA345C8DB781C60
:10A0700007B208F1010000F0FF0803988045B6DB45
:10A0800007B0BDE8F08F0000A8010020AC0100205F
:10A090000121024A117002490870704770010020C6
:10A0A000710100200020084908700849087008491B
:10A0B0000870012007490870FF2007490870002038
:10A0C00006490870704700007001002072010020EE
:10A0D00073010020740100207C0100207D0100201C
:10A0E00001480078704700007C01002070B53548B9
:10A0F000007800B970BD3448007808B33348007860
:10A10000401C3249087008460078C82818DD002035
:10A110002F4908702D4908702E480078401C2D49A1
:10A1200008700846007805280ADB002028490870D6
:10A130002549087027490870FF2027490870D9E78A
:10A1400026480078F6F78CFF044625480578047009
:10A15000012D34D19CBB00211E4A11701B49087887
:10A1600000211A4A11700121174A11701849097803
:10A17000491C174A117011460978012903D011466C
:10A180000978022900D1B5E7164909684908154A36
:10A190001160102804DB1146096841F0004111608C
:10A1A0000B490978222909D10021094A1170094A6D
:10A1B00011700C490968090C074A117000BF00BFF3
:10A1C00098E7000070010020720100207301002058
:10A1D000750100207D0100207C010020710100201C
:10A1E00074010020780100200020014908707047A8
:10A1F0006501002070B505460C460E4805700E48F6
:10A20000048000884FF6FF7101EA40000A49088087
:10A210000846008840F4C0600880002007490870A4
:10A22000074908600120074908700520FBF717F867
:10A2300070BD00006401002066010020680100205C
:10A240006C0100206501002010B51848007800B9A5
:10A2500010BD1748006800F57A7015490860084677
:10A26000006842F6B10188421DD311480068401AC7
:10A270000F4908600F48007800F001010E4800788F
:10A28000F7F70CF80B48008840100A4908800B4883
:10A290000078401C09490870084600780B2802D154
:10A2A00000200249087000BFD2E7000065010020CD
:10A2B0006C0100206601002064010020680100207C
:10A2C0002DE9F04708AC94E8F010DFF8CC80DFF817
:10A2D000CC9099F9009048F82900DFF8C480DFF8A5
:10A2E000BC9099F9009048F82910DFF8B880DFF8A1
:10A2F000AC9099F9009048F82920DFF8AC80DFF89D
:10A300009C9099F9009048F82930DFF8A080DFF898
:10A310008C9099F9009048F82940DFF89480DFF894
:10A320007C9099F9009048F82950DFF88880DFF890
:10A330006C9099F9009048F82960DFF87C80DFF88C
:10A340005C9099F9009048F82970DFF87080DFF888
:10A350004C9099F9009048F829C04FF00008DFF8B8
:10A360006090DFF838A09AF900A029F81A80DFF889
:10A370002C8098F8008008F101084FFA88F8DFF87F
:10A380001C9089F800804FF00108DFF8389089F8B8
:10A390000080BDE8F0870000E4050120B101002045
:10A3A000F80501200C0601202006012034060120BA
:10A3B000480601205C060120700601208406012069
:10A3C00098060120B0010020054A064B93F90030A1
:10A3D000D054054A034B93F90030D1547047000024
:10A3E000B2010020B1010020B70100200020024985
:10A3F0000870024908707047B1010020B0010020C8
:10A4000010B50948007800B910BD002404E02046CA
:10A4100000F00EF8601C44B2044890F90000844239
:10A42000F5DB00BFF0E70000B0010020B101002023
:10A430002DE9FC5F04466C4850F824006B490F5C22
:10A440000FB9BDE8FC9F6A4850F82400674911F82D
:10A4500000B0684931F8241088B2F7F751F8804607
:10A46000654931F8241088B2F7F74AF80646634880
:10A4700050F824005D49085C0190614850F82400C0
:10A4800011F800905F4850F8240011F800A05E49D0
:10A4900031F8241088B2F7F721F805B25B4931F89A
:10A4A000241088B2F7F71AF800B200900198E8B1CA
:10A4B000B9F1000F07D00098854202DA681C05B296
:10A4C00001E04FF00009BBF1000F06D1BAF1000F17
:10A4D00003D0012D01DD681E05B24D4830F814008F
:10A4E000284400B24A4921F8140008E0484830F8EE
:10A4F00014100098084400B2454921F8140042495C
:10A5000031F8241088B22946F7F754F83C4850F83F
:10A510002400364901F800903D4830F9140042F219
:10A520001071884200DA8CE7394830F81400A0F541
:10A530001C50103800B2364921F81400BBF1000F4E
:10A540002DD1002E23DD761E2B4931F8241088B240
:10A550003146F7F73BF8BAF1000F20D1284605FB4A
:10A5600000F144F6206291FBF2F086420EDA4FF0E1
:10A57000010A4FF00009224951F824101B4A02F841
:10A580000190204951F8241002F801A007E02FB1F2
:10A590000027154850F8240014490F5451E7012FA3
:10A5A00007D11C49085D0021F6F778FE08F1010883
:10A5B00006E01849085D0121F6F770FEA8F10108D0
:10A5C0000C4931F8241088B24146F6F7FFFF1249D2
:10A5D000085D0121F6F762FE0F49085D0021F6F7DC
:10A5E0005DFE00BF2DE700000C060120E802002000
:10A5F00020060120F8050120E40501203406012091
:10A60000480601205C060120700601208406012016
:10A6100098060120B2010020B70100202DE9F04189
:10A6200007460E461546FEF791FF002411E0281953
:10A63000801CDFF830C01CF800302819401C1CF8C2
:10A64000002028191CF80010384600F023F8E01C00
:10A6500004B2B442EBDBFEF77BFF0A20FAF7EAFD17
:10A66000BDE8F081E802002070472DE9F041044682
:10A670000D4616461F46FEF769FF3B463246294601
:10A68000204600F007F8FEF763FF0A20FAF7D2FD34
:10A69000BDE8F0812DE9F04180460E4615461F4683
:10A6A0002C462402344424023C4421464046FEF712
:10A6B000F5FFBDE8F081000010B5002009490870E1
:10A6C00000F012F800F026F9FFF78EFDFFF7CCFF3F
:10A6D000FFF7E8FCFFF738FAFEF7B0F9FFF786FE60
:10A6E00010BD0000300100200020014908707047B3
:10A6F0004001002070B5049C0F4E307001250F4EB4
:10A70000357014250E4E35703C250E4E35700025E3
:10A710000D4E357001250D4E357000250C4E3570EF
:10A7200001250C4E35700C4D29700C4D2A700C4DC6
:10A730002B700C4D2C7070BD420100204001002098
:10A740004301002044010020450100204601002073
:10A750004701002048010020490100204A01002053
:10A760004B0100204C01002070B53648007800B93C
:10A7700070BD35480078401C3349087008460078A1
:10A7800032490978884200DAF2E700202E49087041
:10A790002F4890F90000642190FBF1F201FB1200B8
:10A7A0002B4908700846007808B9012000E0002015
:10A7B00004462546264890F90000264991F90010E4
:10A7C00088420ADB002124480078F6F767FD002163
:10A7D00022480078F6F762FD00245CB12048017839
:10A7E0001D480078F6F75AFD1E4801781B4800788E
:10A7F000F6F754FD164890F900001B4991F9001036
:10A8000088420ADB002119480078F6F747FD00214D
:10A8100017480078F6F742FD00255DB1154801782C
:10A8200012480078F6F73AFD13480178104800788E
:10A83000F6F734FD06480078401C40B20449087021
:10A8400000BF95E7400100204101002042010020A7
:10A850003F01002043010020490100204A0100205F
:10A860004501002046010020440100204B0100204A
:10A870004C010020470100204801002070B5DDE9AF
:10A880000445064E3070064E3170064E3270064E4C
:10A890003370064E3470064E357070BD4301002093
:10A8A000440100204501002046010020470100200E
:10A8B0004801002010B500F043F800F0A5F8FFF7BC
:10A8C000C3FC0B480078401C094908700846007812
:10A8D0000A2800DA10BD002005490870FFF744FF80
:10A8E000FFF704FCFFF736F9FFF78AFD00BFF1E739
:10A8F000300100200122024B1A70024A11547047A5
:10A900005401002055010020014A42F820107047F0
:10A9100068050120FF200749087048708870C870DA
:10A92000087148718871C8710020034908600349A3
:10A93000087070475501002060010020540100207C
:10A9400010B52748007800B910BD26480068401CA3
:10A950002449086008460068FA2816D0224823498E
:10A960000968405CFF280FD021482049096850F849
:10A9700021001C490968884206D11B491B4A1268FC
:10A98000885C0021F6F78AFCDEE71748174909685A
:10A99000405CFF2806D01449144A1268885C0021E4
:10A9A000F6F77CFC00200F49086010480068401C46
:10A9B0000E49086008460068082801D10020086098
:10A9C00009480A490968405CFF2806D00649074A39
:10A9D0001268885C0121F6F761FC00BFB4E7000053
:10A9E000540100205001002055010020600100208A
:10A9F000680501200021024A117002490870704761
:10AA00003D0100203E01002010B51448007800B937
:10AA100010BD134800680A301149086008460068F4
:10AA200010490968884216DB0D4800680D4909681D
:10AA3000401A0B4908600C4801780C480078F6F77A
:10AA40002DFC0948007818B901200749087002E078
:10AA500000200549087000BFDAE700003D01002032
:10AA600034010020380100203C0100203E0100207C
:10AA7000024908600121024A117070473801002024
:10AA80003D01002000200149087070473D01002071
:10AA90002DE9F04107460C4600250026FEF756FD3D
:10AAA00001213846F6F7FAFB0120FAF7C3FB002133
:10AAB0003846F6F7F3FB00E0761C4CF25030864245
:10AAC00004DA2046F6F7CCFA0028F5D0FBF772FB43
:10AAD0000BE0FBF749FB8046FBF744FBB8FBF0F5C6
:10AAE00044F62060854200D904E02046F6F7B8FA23
:10AAF0000128EED000BFFEF72BFD05EB051040004E
:10AB0000C821B0FBF1F0BDE8F08110B5FEF720FDE3
:10AB1000F6F746FEFEF712FDFAF7A0FBF6F7FEF891
:10AB2000FBF7EAFAFDF7C4FFF6F786FC4FF47A70FC
:10AB3000FAF795FB10BD0000002000213F4A126883
:10AB400042F480323D4B1A6000BF401C3B4A126801
:10AB500002F4003119B94FF6FF729042F5D1374A2D
:10AB6000126802F400320AB900BFFEE7334AD26924
:10AB700042F08052314BDA61314A126842F440426D
:10AB80002F4B1A602D4A52682C4B5A601A46526855
:10AB90005A601A46526842F480625A601A465268F5
:10ABA00022F440325A601A46526842F440325A60E7
:10ABB0001A465268234B1A40204B5A601A46526874
:10ABC000214B1A431D4B5A601A46126842F080729C
:10ABD0001A6000BF194A126802F00072002AF9D008
:10ABE000174A126842F48032154B1A6000BF144AAB
:10ABF000526802F48032002AF9D0114A126842F4F5
:10AC000000320F4B1A6000BF0D4A526802F4003246
:10AC1000002AF9D0094A526822F00302074B5A6011
:10AC20001A46526842F002025A6000BF034A526854
:10AC300002F00802002AF9D070470000001002401C
:10AC400000700040FFFFC3B70000340810B5FFF7E5
:10AC500073FF10BD016841F0800101607047000082
:10AC600010B531B101293FD002297DD003297CD113
:10AC7000BFE0036A23F001030362836923F0030347
:10AC80008361036A148823430362036A23F0020387
:10AC90000362036A9488234303626A4B984202D09A
:10ACA000694B98421FD1036A23F004030362036ACD
:10ACB000548823430362036A23F008030362036A90
:10ACC000D48823430362436823F48073436043685A
:10ACD000148923434360436823F40073436043684B
:10ACE000548923434360ABE0036A23F010030362FB
:10ACF000836923F440738361036A148843EA04136D
:10AD00000362036A23F020030362036A948843EA20
:10AD1000041303624B4B984202D04B4B984226D10E
:10AD2000036A23F040030362036A548843EA04136E
:10AD30000362036A23F080030362036AD48843EA50
:10AD400004130362436823F48063436043681489F7
:10AD500043EA84034360436823F400634360436829
:10AD6000548943EA840301E002E068E0436067E05D
:10AD7000036A23F480730362C36923F00303C3618E
:10AD8000036A148843EA04230362036A23F400730A
:10AD90000362036A948843EA04230362294B9842BE
:10ADA00002D0294B984223D1036A23F480630362C3
:10ADB000036A548843EA04230362036A23F40063AA
:10ADC0000362036AD48843EA04230362436823F4DA
:10ADD000805343604368148943EA04134360436823
:10ADE00023F4005343604368548943EA04134360E7
:10ADF00026E0036A23F480530362C36923F440739B
:10AE0000C361036A148843EA04330362036A23F4C8
:10AE100000530362036A948843EA04330362094BD4
:10AE2000984202D0084B984208D1436823F48043EB
:10AE300043604368148943EA8413436000E000BF21
:10AE400000BF10BD002C01400034014031B1012988
:10AE50000CD0022913D0032922D118E0836923F0F2
:10AE6000700383618369134383611AE0836923F468
:10AE7000E0438361836943EA0223836111E0C3698C
:10AE800023F07003C361C3691343C36109E0C3695D
:10AE900023F4E043C361C36943EA0223C36100E0D2
:10AEA00000BF00BF704731B1012906D0022906D08A
:10AEB000032908D105E0426306E0826304E0C2632F
:10AEC00002E0026400E000BF00BF704731B1012919
:10AED0000CD0022913D0032922D118E0836923F072
:10AEE000080383618369134383611AE0836923F450
:10AEF00000638361836943EA0223836111E0C369CC
:10AF000023F00803C361C3691343C36109E0C36944
:10AF100023F40063C361C36943EA0223C36100E011
:10AF200000BF00BF70470021018041808180C18047
:10AF3000018141817047000010B504465C49601AE8
:10AF40008C426FD019DC5B49A4EB01008C424ED0DF
:10AF500009DCB4F1804F2ED057482044A0B3B0F59F
:10AF6000806F72D13AE0B0F5806F49D0B0F5006FD4
:10AF70004FD0B0F5406FF4D17BE0B0F5983F5BD097
:10AF800009DCB0F5806F73D0B0F5883F0AD0B0F51A
:10AF90008C3F5AD147E0B0F59A3F57D0B0F59C3F6F
:10AFA00053D15CE040F20B30FDF7B8FC40F20B30BF
:10AFB000FDF7A4FC79E04FF48060FDF7AFFC4FF49F
:10AFC0008060FDF79BFC70E0FFE740F20140FDF779
:10AFD000A5FC40F20140FDF791FC66E040F2024022
:10AFE000FDF79CFC40F20240FDF788FC5DE040F27A
:10AFF0000340FDF793FC40F20340FDF77FFC54E073
:10B0000040F20440FDF78AFC40F20440FDF776FC74
:10B010004BE040F20540FDF781FC40F20540FDF7B2
:10B020006DFC42E02EE040F20D30FDF777FC40F27F
:10B030000D30FDF763FC38E040F21330FDF76EFC95
:10B0400040F21330FDF75AFC2FE02DE04FF445702D
:10B05000FDF764FC4FF44570FDF750FC25E040F22D
:10B060001530FDF75BFC40F21530FDF747FC1CE0A6
:10B0700011E040F20640FDF751FC40F20640FDF7BA
:10B080003DFC12E040F20740FDF748FC40F207406B
:10B09000FDF734FC09E04FF48160FDF73FFC4FF40D
:10B0A0008160FDF72BFC00E000BF00BF10BD000079
:10B0B000001C0040000C004000FCFFBF016821F0B4
:10B0C000010101607047016841F0010101607047B2
:10B0D0000A8882621D4A90420ED0B0F1804F0BD098
:10B0E0001B4A904208D01B4A904205D01A4A90420F
:10B0F00002D01A4A90420BD1026822F0700202601C
:10B1000002684B881A43026002688B881A43026007
:10B110008A68C262124A90420AD0124A904207D00C
:10B12000026822F4407202600268CB881A4302600F
:10B13000064A904202D0094A904201D10A7B02633A
:10B14000426942F00102426170470000002C014058
:10B150000004004000080040000C004000340140A2
:10B160000010004000140040C2680A43C2607047EB
:10B1700002698A430261704710B50446B4B90F49A9
:10B180000888F6F711FA0E4908600C490988491C2D
:10B1900088B2F6F709FA0B4908600A461178084A9E
:10B1A0001078FFF775FC0849086004E0E1B252200E
:10B1B000F5F786FD00BF00BF10BD00003400002081
:10B1C0008C000020900000205C0000202DE9F0475A
:10B1D00004460D460027B846B94600261D49601AA8
:10B1E0008C421CD006DC1C48204470B1B0F5806F46
:10B1F0001FD10FE0B0F5806F16D0B0F56C4F18D1AD
:10B200000320FDF7BFFA074614E00220FDF7BAFA63
:10B2100007460FE00220FDF7B5FA07460AE00220D4
:10B22000FDF7B0FA074605E00220FDF7ABFA074646
:10B2300000E000BF00BF07EB5500B0FBF5F64FF68E
:10B24000F07006EA000806F00F0948EA0900A0605D
:10B25000BDE8F087004C004000BCFFBF01464868D5
:10B26000C0F308007047C1F3080242607047000055
:10B2700010B504462049601A8C4228D006DC1F48CD
:10B28000204490B1B0F5806F33D117E0B0F5806FF6
:10B2900026D0B0F56C4F2CD140F20E30FDF73EFBBE
:10B2A00040F20E30FDF72AFB24E040F21140FDF79A
:10B2B00035FB40F21140FDF721FB1BE040F212404C
:10B2C000FDF72CFB40F21240FDF718FB12E040F2B4
:10B2D0001340FDF723FB40F21340FDF70FFB09E09D
:10B2E00040F21440FDF71AFB40F21440FDF706FB54
:10B2F00000E000BF00BF10BD004C004000BCFFBF1D
:10B30000C16841F40051C160704710B5024602EBBC
:10B310009110006801F01F040123A340184008B1F8
:10B32000012010BD0020FCE70A460021416921F4FC
:10B3300000711143416170470A460021416921F4BF
:10B34000807111434161704710B500EB9112126892
:10B3500001F01F040123A3401A4300EB91131A606C
:10B3600010BD70B5024600230024C1F389101058A7
:10B3700001F01F060125B54000EA050302EB9150DC
:10B380000068C1F304460125B54000EA050414B184
:10B390000BB1012070BD0020FCE7C26822F4C0623E
:10B3A000C260C2680A43C26070470A460021C16891
:10B3B00021F004011143C1607047026922F4405238
:10B3C000026102690A43026170470A460021C168AE
:10B3D00021F008011143C1607047C26822F4805215
:10B3E000C260C2680A43C26070474350553A47443E
:10B3F000333246333033434754362C465245513A64
:10B400003132302C43433A31000000002CB40008A4
:10B4100000000020D4010000E602000830B400085B
:10B42000D4010020DC2D0100D87D000801FF01D7E8
:0400000508000131BD
:00000001FF
