:1000000002006EFFFFFFFFFFFFFFFF02013BFFFF4C
:10001000FFFFFFFFFFFFFFFFFFFFFFFFFFFFFFFFF0
:10002000FFFFFFFFFFFFFFFFFFFFFFFFFFFFFFFFE0
:10003000FFFFFFFFFFFFFFFFFFFFFFFFFFFFFFFFD0
:10004000FFFFFFFFFFFFFFFFFFFFFFFFFFFFFFFFC0
:10005000FFFFFFFFFFFFFFFFFFFFFFFFFFFFFFFFB0
:10006000FFFFFFFFC0F9A4B0999282F8809078005A
:100070007400F6D8FD75814A020299E52E7004A835
:100080002CE622852C82852D83E49322A82CE53052
:10009000F622E52E700AA82CE6F5F008E6C5F02257
:1000A000852C82852D83E493F5F0740193C5F022AD
:1000B000A82CE530F608E531F6222222752C00E561
:1000C0002C3392B1752C00E52C3392B2752C00E5DF
:1000D0002C3392B022752D08E52D700302011915FD
:1000E0002DE52CA2E713F52EE52E3392B0752E01E7
:1000F000A82EB80006852C2E020103E52CC333D8A8
:10010000FCF52E852E2C752EFFE52E3392B2752E22
:1001100000E52E3392B20200D822752CFFE52C3375
:1001200092B1752C00E52C3392B12285302C12004F
:10013000D5852F2C1200D512011A22C0D0C000C0C4
:1001400001C002C003C004C005C006C007F8C0005B
:10015000E5F0F8C000C082C083C02CC02DC02EC006
:100160002FC030C031C032C0337531647532007574
:1001700033017534007535247536007537007538D0
:1001800000852339753A00753B00753C00C035C0C9
:1001900036753501753600783A7936120658D036FC
:1001A000D0352535F535E5F03536F53685352C85F0
:1001B000362D85372E85382F12007BF53585353560
:1001C000753600753700753800C031C032753101A1
:1001D00075320078367932120658D032D031253156
:1001E000F531E5F03532F53285312C85322D853308
:1001F0002E85342F12007BF53185312F8522301268
:10020000012B753101A831B8000685223102021890
:10021000E522C333D8FCF531853122753101E52360
:100220002531F531853123753104E523C3953175C9
:10023000310070037531FFE53120E70302024B7591
:1002400031008531237531018531227531F28531D7
:100250008C75310085318AD033D032D031D030D056
:100260002FD02ED02DD02CD083D082D000E8F5F026
:10027000D000E8D007D006D005D004D003D002D0FB
:1002800001D000D0D0321200BC753D00753E008513
:100290003D2F853E3012012B22753F01853F897528
:1002A0003FC8853F8C753F00853F8A753FFFE53F1E
:1002B0003392AF753FFFE53F3392A9753FFFE53FAE
:1002C00033928C120286753F01853F22753F00856F
:1002D0003F23753F2475400075410075420075430A
:1002E00000754400754500754600C03FC040753F2D
:1002F0000175400078447940120658D040D03F251F
:100300003FF53FE5F03540F540754301853F2C85CD
:10031000402D85412E85422F85433012008C753F3C
:100320002475400075410075420075430175440015
:10033000754500754600C03FC040753F01754000DF
:1003400078447940120658D040D03F253FF53FE52C
:10035000F03540F540754302853F2C85402D8541A1
:100360002E85422F85433012008C753F2475400046
:10037000754100754200754302754400754500756E
:100380004600C03FC040753F017540007844794049
:10039000120658D040D03F253FF53FE5F03540F5F7
:1003A00040754303853F2C85402D85412E85422F86
:1003B00085433012008C753F2475400075410075EF
:1003C0004200754303754400754500754600C03F03
:1003D000C040753F0175400078447940120658D0FE
:1003E00040D03F253FF53FE5F03540F540754304EB
:1003F000853F2C85402D85412E85422F8543301227
:10040000008C753FD7754011853F3F854040853F43
:10041000418540427543247544007545007546008A
:10042000754700754800754900754A00C043C044CF
:1004300075430175440078487944120658D044D079
:10044000432543F543E5F03544F54475470A7548BF
:1004500000784279481206A4F54785F04885474759
:1004600085432C85442D85452E85462F85473012A2
:10047000008C75430A75440078427944120674F57D
:100480004385F044854341854442754324754400C7
:10049000754500754600754701754800754900753A
:1004A0004A00C043C044754301754400784879440C
:1004B000120658D044D0432543F543E5F03544F5C2
:1004C0004475470A754800784279481206A4F547F2
:1004D00085F04885474785432C85442D85452E85E5
:1004E000462F85473012008C75430A7544007842C8
:1004F0007944120674F54385F044854341854442AE
:1005000075432475440075450075460075470275AE
:100510004800754900754A00C043C04475430175E1
:10052000440078487944120658D044D0432543F516
:1005300043E5F03544F54475470A7548007842793B
:10054000481206A4F54785F04885474785432C8522
:10055000442D85452E85462F85473012008C7543E6
:100560000A75440078427944120674F54385F044D4
:1005700085434185444275432475440075450075A3
:100580004600754703754800754900754A00C04329
:10059000C04475430175440078487944120658D028
:1005A00044D0432543F543E5F03544F544854147C0
:1005B00085432C85442D85452E85462F8547301251
:1005C000008C754364E54370030205E015437544F0
:1005D000C8E54470030205DD15440205D10205C5D6
:1005E000754301754400E53F2543F543E540354437
:1005F000F54485433F854440754310754427783F53
:1006000079431206D9F543E54320E70302061B753B
:10061000430075440085433F85444002040E22C2D6
:10062000D530E704F404D2D5C5F030E704F404B2C1
:10063000D5C5F08430D502F40422E6F5F018E6F4CE
:1006400063F0FF04700205F022E7F5F019E7F463A8
:10065000F0FF04700205F02219E6F5F0E7A4FA09AC
:1006600018E6F5F0E7A42AFA19E6F5F0E7A4C5F0D4
:100670002AC5F022E6FF18E6FEE7FD19E7FC7B003D
:100680007A007910C3EE33FEEF33FFEA33FAEB332F
:10069000FBEAC39CF8EB9D40050EFB850002D9E404
:1006A000EE8FF022120674EA8BF022C2D5E630E714
:1006B0000A12063A7807FEAFF0D2D5E730E70A1201
:1006C00006497905FCADF0B2D512067430D509F4AF
:1006D00063F0FF04700205F022E6F5F0E7B5F00CD8
:1006E0000809E6F5F0E7B5F00374FF22E422E6F529
:1006F000F0E7B5F01E0809E6F5F0E7B5F0150809D2
:10070000E6F5F0E7B5F00C0809E6F5F0E7B5F0031B
:1007100074FF22E422E7C3960809E7961322E7C391
:10072000960809E7960809E7960809E7961322E76D
:10073000C3960809E79622E7C3960809E7960809D1
:10074000E7960809E79622C3C5F013C5F013D8F75A
:0B07500022C333C5F033C5F0D8F722F8
:00000001FF
